:100000000C942A000C943F000C943F000C943F0089
:100010000C943F000C943F000C943F000C943F0064
:100020000C943F000C943F000C943F000C943F0054
:100030000C943F000C943F000C943F000C943F0044
:100040000C943F000C943F000C943F000C943F0034
:100050000C943F0011241FBECFE5D8E0DEBFCDBF1A
:1000600010E0A0E6B0E0ECE8FBE202C005900D92E3
:10007000A837B107D9F70E94ED140C94C4150C945D
:100080000000EF92FF920F931F937B018C0120E001
:1000900030E040E05FE40E94ED0388238CF0C8016B
:1000A000B70120E030E040E05FE40E94B9010E9427
:1000B0004D049B01AC01205030404040504806C0E8
:1000C000C801B7010E944D049B01AC01B901CA01EE
:1000D0001F910F91FF90EF900895A0E0B0E0E3E74B
:1000E000F0E00C948D15DC012B01FA019C9192300B
:1000F00008F439C1EB018881823008F433C19430AF
:1001000069F4843009F02FC111969C91119789816F
:10011000981709F428C1A0E6B0E025C1843009F49D
:1001200021C18230A9F4923009F01DC19A01AD01BC
:1001300088E0EA010990AE01E90109929E0181502F
:10014000C1F7E201898111969C918923818308C1BD
:10015000923009F407C112962D903C901397EB0151
:100160008A819B811496AD90BD90CD90DC901797BD
:10017000EC80FD800E811F819101281B390BB90194
:1001800037FF04C066277727621B730B6032710547
:100190000CF061C0121613066CF537014801062EEB
:1001A00004C096948794779467940A94D2F721E0D8
:1001B00030E040E050E004C0220F331F441F551FC1
:1001C0006A95D2F721503040404050402E213F21C7
:1001D00040235123211531054105510521F021E02E
:1001E00030E040E050E079018A01E628F72808294C
:1001F00019293CC0232BD1F1260E371E35014601AB
:10020000062E04C096948794779467940A94D2F744
:1002100021E030E040E050E004C0220F331F441FD3
:10022000551F6A95D2F721503040404050402A2156
:100230003B214C215D21211531054105510521F05E
:1002400021E030E040E050E059016A01A628B728DB
:10025000C828D9280BC0821593052CF01C01AA24AC
:10026000BB24650103C0EE24FF24870111969C91F5
:10027000D20111968C91981709F445C0992339F051
:10028000A80197012A193B094C095D0906C0A6017E
:1002900095012E193F09400B510B57FD08C01182E3
:1002A0003382228224833583468357831DC081E0B5
:1002B00081833382228288279927DC01821B930B5A
:1002C000A40BB50B84839583A683B7830DC0220F3F
:1002D000331F441F551F24833583468357838281F0
:1002E000938101979383828324813581468157814D
:1002F000DA01C9010197A109B1098F5F9F4FAF4F83
:10030000BF4328F30BC0918333822282EA0CFB1C8B
:100310000C1D1D1DE482F5820683178383E0808314
:10032000248135814681578157FF1AC0C901AA2708
:1003300097FDA095BA2F81709070A070B0705695FF
:10034000479537952795822B932BA42BB52B848328
:100350009583A683B7838281938101969383828359
:10036000DF0101C0D201CD01CDB7DEB7E2E10C94CF
:10037000A915A0E2B0E0EFEBF1E00C9499156983C8
:100380007A838B839C832D833E834F835887E9E058
:10039000EE2EF12CEC0EFD1ECE010196B7010E944F
:1003A00076058E010F5E1F4FCE010596B8010E94A3
:1003B00076058A8991E089278A8BC701B801AE0149
:1003C000475E5F4F0E946D000E94A104A096E6E088
:1003D0000C94B515A0E2B0E0E0EFF1E00C949915B3
:1003E00069837A838B839C832D833E834F835887D5
:1003F000F9E0EF2EF12CEC0EFD1ECE010196B701B7
:100400000E9476058E010F5E1F4FCE010596B80142
:100410000E947605C701B801AE01475E5F4F0E949A
:100420006D000E94A104A096E6E00C94B515A0E230
:10043000B0E0EDE1F2E00C948D1569837A838B8353
:100440009C832D833E834F835887CE010196BE0146
:10045000675F7F4F0E947605CE010596BE016F5EF5
:100460007F4F0E9476059985923088F08989823085
:10047000C8F0943019F4823051F404C0843029F467
:10048000923081F480E690E0C6C0923049F420E0DA
:100490009A858A89981321E02A87CE010996BBC0E4
:1004A000823049F420E09A858A89981321E02A8BCA
:1004B000CE014196B0C02D843E844F8458886D880B
:1004C0007E888F88988CEE24FF248701AA24BB2481
:1004D000650140E050E060E070E0E0E0F0E0C10184
:1004E00081709070892BE9F0E60CF71C081D191D2E
:1004F0009A01AB012A0D3B1D4C1D5D1D80E090E073
:10050000A0E0B0E0E614F7040805190520F481E046
:1005100090E0A0E0B0E0BA01A901480F591F6A1F9E
:100520007B1FAA0CBB1CCC1CDD1C97FE08C081E005
:1005300090E0A0E0B0E0A82AB92ACA2ADB2A3196C6
:10054000E032F10549F0660C771C881C991C569422
:10055000479437942794C3CFFA85EA892B893C893D
:100560008B859C85280F391F2E5F3F4F17C0CA010E
:1005700081709070892B61F016950795F794E79438
:1005800080E090E0A0E0B0E8E82AF92A0A2B1B2BD3
:1005900076956795579547952F5F3F4F77FDE7CF46
:1005A0000CC0440F551F661F771F17FD4160EE0CEE
:1005B000FF1C001F111F21503040403090E05907B0
:1005C00090E0690790E4790760F32B8F3C8FDB01A3
:1005D000CA018F779070A070B07080349105A1052A
:1005E000B10561F447FD0AC0E114F10401051105EC
:1005F00029F0405C5F4F6F4F7F4F40781A8EFE1797
:1006000011F081E08A8F4D8F5E8F6F8F78A383E02A
:10061000898FCE0149960E94A104A096E2E10C9434
:10062000A915A8E1B0E0E7E1F3E00C949515698322
:100630007A838B839C832D833E834F835887B9E0D5
:10064000EB2EF12CEC0EFD1ECE010196B7010E949F
:1006500076058E010F5E1F4FCE010596B8010E94F0
:1006600076052985223008F47EC03989323010F4AD
:10067000B8017CC08A859A8989278A87243011F03D
:10068000223031F4231709F06EC060E670E06EC0CE
:10069000343039F41D861E861F86188A1C861B86F8
:1006A00004C0323021F484E08987B7015FC02B8514
:1006B0003C858B899C89281B390B3C872B87ED84D3
:1006C000FE840F851889AD88BE88CF88D88CEA143F
:1006D000FB040C051D0540F4EE0CFF1C001F111F50
:1006E000215030403C872B8720E030E040E050E054
:1006F00080E090E0A0E0B0E460E070E0EA14FB0489
:100700000C051D0540F0282B392B4A2B5B2BEA18D2
:10071000FB080C091D09B695A79597958795EE0CD2
:10072000FF1C001F111F6F5F7F4F6F31710531F785
:10073000DA01C9018F779070A070B0708034910594
:10074000A105B10561F427FD0AC0E114F10401051A
:10075000110529F0205C3F4F4F4F5F4F20782D87C8
:100760003E874F87588BBE01675F7F4FCB010E944A
:10077000A1046896EAE00C94B115A8E1B0E0E3ECBE
:10078000F3E00C94991569837A838B839C832D8382
:100790003E834F83588789E0E82EF12CEC0EFD1E36
:1007A000CE010196B7010E9476058E010F5E1F4FA4
:1007B000CE010596B8010E9476058985823040F009
:1007C0008989823028F0C701B8010E94EE0501C076
:1007D0008FEF6896E6E00C94B515A8E1B0E0E3EF82
:1007E000F3E00C94991569837A838B839C832D8322
:1007F0003E834F83588789E0E82EF12CEC0EFD1ED6
:10080000CE010196B7010E9476058E010F5E1F4F43
:10081000CE010596B8010E9476058985823040F0A8
:100820008989823028F0C701B8010E94EE0501C015
:100830008FEF6896E6E00C94B515A8E1B0E0E3E22E
:10084000F4E00C94991569837A838B839C832D83C0
:100850003E834F83588789E0E82EF12CEC0EFD1E75
:10086000CE010196B7010E9476058E010F5E1F4FE3
:10087000CE010596B8010E9476058985823040F048
:100880008989823028F0C701B8010E94EE0501C0B5
:1008900081E06896E6E00C94B515ACE0B0E0E3E5E5
:1008A000F4E00C949D1569837A838B839C83CE013D
:1008B0000196BE016B5F7F4F0E9476058D8182306D
:1008C00061F1823050F1843021F48E81882351F11E
:1008D0002EC02F81388537FD20C06E812F31310524
:1008E0001CF06623F9F023C08EE190E0821B930B8D
:1008F00029853A854B855C8504C056954795379583
:1009000027958A95D2F76623B1F05095409530959A
:1009100021953F4F4F4F5F4F0EC020E030E040E049
:1009200050E009C02FEF3FEF4FEF5FE704C020E03A
:1009300030E040E050E8B901CA012C96E2E00C94A6
:10094000B915DF92EF92FF920F931F93FC01E480A1
:10095000F58006811781D1808081823048F480E063
:1009600090E0A0E1B0E0E82AF92A0A2B1B2BA5C0F1
:10097000843009F49FC0823021F4EE24FF248701E3
:1009800005C0E114F1040105110519F4E0E0F0E0FF
:1009900096C0628173819FEF623879070CF05BC06B
:1009A00022E83FEF261B370B2A3131052CF020E0DF
:1009B00030E040E050E02AC0B801A701022E04C098
:1009C00076956795579547950A94D2F781E090E020
:1009D000A0E0B0E004C0880F991FAA1FBB1F2A9592
:1009E000D2F70197A109B1098E219F21A023B1233C
:1009F0000097A105B10521F081E090E0A0E0B0E012
:100A00009A01AB01282B392B4A2B5B2BDA01C90148
:100A10008F779070A070B07080349105A105B105FA
:100A200039F427FF09C0205C3F4F4F4F5F4F04C090
:100A3000215C3F4F4F4F5F4FE0E0F0E02030A0E0FF
:100A40003A07A0E04A07A0E45A0710F0E1E0F0E01E
:100A500079018A0127C06038710564F5FB01E1580E
:100A6000FF4FD801C7018F779070A070B0708034AD
:100A70009105A105B10539F4E7FE0DC080E490E0D1
:100A8000A0E0B0E004C08FE390E0A0E0B0E0E80EAA
:100A9000F91E0A1F1B1F17FF05C016950795F7942F
:100AA000E794319687E016950795F794E7948A9531
:100AB000D1F705C0EE24FF248701EFEFF0E06E2FA1
:100AC000679566276795902F9F77D794DD24D794F5
:100AD0008E2F8695492F462B582F5D29B701CA01C5
:100AE0001F910F91FF90EF90DF900895FC01DB01C3
:100AF000408151812281622F6F7770E0221F22276F
:100B0000221F9381892F880F822B282F30E0991F75
:100B10009927991F11969C93119721153105A9F5D5
:100B2000411551056105710511F482E037C082E875
:100B30009FEF13969C938E9312979A01AB0167E0F7
:100B4000220F331F441F551F6A95D1F783E08C9302
:100B50000DC0220F331F441F551F12968D919C917B
:100B60001397019713969C938E931297203080E0F1
:100B7000380780E0480780E4580758F314962D930F
:100B80003D934D935C93179708952F3F310579F46A
:100B9000411551056105710519F484E08C930895A0
:100BA00064FF03C081E08C9312C01C9210C02F57C9
:100BB000304013963C932E93129783E08C9387E0FA
:100BC000440F551F661F771F8A95D1F770641496DE
:100BD0004D935D936D937C93179708951F93DC015C
:100BE000FB019C91923008F447C08081823008F468
:100BF00043C0943051F411961C91843099F5818151
:100C0000682F70E0611B71093FC0843021F0923081
:100C100031F48230B9F18181882389F12DC0119698
:100C20001C9111978230F1F081811817D9F4129636
:100C30002D913C911397828193818217930794F0B1
:100C400028173907BCF014968D919D910D90BC9199
:100C5000A02D2481358146815781281739074A07FD
:100C60005B0718F4112341F00AC082179307A40709
:100C7000B50740F4112319F061E070E005C06FEF93
:100C80007FEF02C060E070E0CB011F910895DF9319
:100C9000CF9300D000D000D0CDB7DEB78B836C836C
:100CA0008B818695869586958A838B8187708983CB
:100CB0008A81282F30E03E832D838D819E81813073
:100CC000910509F443C02D813E81223031052CF479
:100CD0008D819E81009771F0BCC02D813E812230B4
:100CE000310509F45FC08D819E818330910509F43F
:100CF00085C0AFC08C818130A1F4ABE3B0E0EBE301
:100D0000F0E08081482F8981282F30E081E090E059
:100D1000022E02C0880F991F0A94E2F7842B8C934D
:100D200098C0ABE3B0E0EBE3F0E08081482F89812D
:100D3000282F30E081E090E0022E02C0880F991F3A
:100D40000A94E2F7809584238C9383C08C81813050
:100D5000A1F4A8E3B0E0E8E3F0E08081482F8981C6
:100D6000282F30E081E090E0022E02C0880F991F0A
:100D70000A94E2F7842B8C936CC0A8E3B0E0E8E31C
:100D8000F0E08081482F8981282F30E081E090E0D9
:100D9000022E02C0880F991F0A94E2F780958423DF
:100DA0008C9357C08C818130A1F4A5E3B0E0E5E3DA
:100DB000F0E08081482F8981282F30E081E090E0A9
:100DC000022E02C0880F991F0A94E2F7842B8C939D
:100DD00040C0A5E3B0E0E5E3F0E08081482F8981E1
:100DE000282F30E081E090E0022E02C0880F991F8A
:100DF0000A94E2F7809584238C932BC08C818130F8
:100E0000A1F4A2E3B0E0E2E3F0E08081482F898121
:100E1000282F30E081E090E0022E02C0880F991F59
:100E20000A94E2F7842B8C9314C0A2E3B0E0E2E3CF
:100E3000F0E08081482F8981282F30E081E090E028
:100E4000022E02C0880F991F0A94E2F7809584232E
:100E50008C9326960FB6F894DEBF0FBECDBFCF9110
:100E6000DF910895DF93CF9300D000D00F92CDB7DC
:100E7000DEB78B838B818695869586958A838B8159
:100E8000877089838A81282F30E03D832C838C8171
:100E90009D818130910549F12C813D8122303105C0
:100EA0002CF48C819D81009761F05AC02C813D818A
:100EB0002230310571F18C819D8183309105E9F1FA
:100EC0004FC0ABE3B0E0EBE3F0E08081482F8981D5
:100ED000282F30E081E090E0022E02C0880F991F99
:100EE0000A94E2F784278C933BC0A8E3B0E0E8E3E0
:100EF000F0E08081482F8981282F30E081E090E068
:100F0000022E02C0880F991F0A94E2F784278C935F
:100F100027C0A5E3B0E0E5E3F0E08081482F8981B8
:100F2000282F30E081E090E0022E02C0880F991F48
:100F30000A94E2F784278C9313C0A2E3B0E0E2E3C3
:100F4000F0E08081482F8981282F30E081E090E017
:100F5000022E02C0880F991F0A94E2F784278C930F
:100F60000F900F900F900F900F90CF91DF910895F9
:100F7000DF93CF9300D000D000D0CDB7DEB78B8306
:100F80008B818695869586958A838B8187708983E8
:100F90008A81282F30E03E832D834D815E81413050
:100FA000510549F18D819E818230910534F42D8166
:100FB0003E812115310561F057C04D815E8142307F
:100FC000510561F18D819E8183309105D1F14CC035
:100FD000E9E3F0E08081282F30E08981882F90E0DC
:100FE000A90102C0559547958A95E2F7CA01582F85
:100FF00051705C833AC0E6E3F0E08081282F30E056
:101000008981882F90E0A90102C0559547958A955E
:10101000E2F7CA01582F51705C8327C0E3E3F0E088
:101020008081282F30E08981882F90E0A90102C0BB
:10103000559547958A95E2F7CA01582F51705C8300
:1010400014C0E0E3F0E08081282F30E08981882F10
:1010500090E0A90102C0559547958A95E2F7CA012B
:10106000582F51705C8301C01C828C8126960FB66C
:10107000F894DEBF0FBECDBFCF91DF9108951F93CF
:10108000DF93CF93CDB7DEB72A970FB6F894DEBFC4
:101090000FBECDBF8FEF8B8383E18C8382E18D8385
:1010A00081E18E8380E18F8319820FC08981282F8F
:1010B00030E0CE010496FC01E20FF31F808161E075
:1010C0000E94470689818F5F89838981843070F30C
:1010D00019829AC08981282F30E0CE010496FC0144
:1010E000E20FF31F808160E00E94470684E10E94C6
:1010F000B807182F85E10E94B807882F90E0880F65
:10110000991F182B86E10E94B807882F90E0880F5E
:10111000991F880F991F182B87E10E94B807882F05
:1011200090E0880F991F880F991F880F991F812BB6
:101130008A838A81282F30E03A87298789859A8592
:101140008B30910599F129853A852C30310534F49D
:1011500089859A8587309105C9F147C029853A85E7
:101160002D303105A1F089859A858E309105E9F5FC
:101170008981882F90E0880F991F880F991FFC01A3
:10118000E859FF4F80818B839B81988743C0898179
:10119000882F90E0880F991F880F991FFC01E7594D
:1011A000FF4F80818B832B81288734C08981882FD2
:1011B00090E0880F991F0196880F991FFC01E8594C
:1011C000FF4F80818B833B81388724C08981882FA2
:1011D00090E0880F991F880F991FFC01E559FF4F78
:1011E00080818B838B81888715C08981282F30E08F
:1011F000CE010496FC01E20FF31F808161E00E94A2
:10120000470689818F5F89838981843008F462CFA2
:101210009B81988788852A960FB6F894DEBF0FBE0B
:10122000CDBFCF91DF911F9108950F931F93DF934F
:10123000CF93CDB7DEB7CC54D0400FB6F894DEBF15
:101240000FBECDBFFE01E75BFF4F80E090E0A0EF57
:10125000B1E480839183A283B3838E010B5B1F4F24
:10126000FE01E75BFF4F608171818281938120E005
:1012700030E04AEF54E40E941702DC01CB01F80190
:1012800080839183A283B383FE01EB5BFF4F608178
:1012900071818281938120E030E040E85FE30E9429
:1012A0001D04882344F4FE01ED5BFF4F81E090E0D4
:1012B0009183808364C0FE01EB5BFF4F608171818D
:1012C0008281938120E03FEF4FE757E40E94BD0306
:1012D00018160CF043C0FE01E75BFF4F608171817F
:1012E0008281938120E030E040E251E40E941702C5
:1012F000DC01CB018E010D5B1F4FBC01CD010E94B3
:101300004100DC01CB01F801918380831FC0FE0105
:10131000EF5BFF4F88EC90E091838083FE01EF5BF1
:10132000FF4F808191810197F1F7FE01EF5BFF4F45
:1013300091838083DE01AD5BBF4FFE01ED5BFF4F0C
:1013400080819181019711969C938E93FE01ED5BB4
:10135000FF4F808191810097D1F624C08E010D5BF3
:101360001F4FFE01EB5BFF4F608171818281938192
:101370000E944100DC01CB01F80191838083FE01D2
:10138000ED5BFF4F80819181FE01FF969183808309
:10139000FE01FF96808191810197F1F7FE01FF9692
:1013A0009183808388E361E00E94DC0B80E090E021
:1013B000ACE1B2E48BAF9CAFADAFBEAF6BAD7CAD7B
:1013C0008DAD9EAD2BEA3AEA4AE250E40E94170244
:1013D000DC01CB018FAB98AFA9AFBAAF6FA978ADE5
:1013E00089AD9AAD20E030E040E85FE30E941D0443
:1013F00088231CF481E08EAB91C06FA978AD89ADD4
:101400009AAD20E030E04FE753E40E94BD03181688
:101410000CF07BC06BAD7CAD8DAD9EAD20E030E0BF
:101420004AE754E40E941103DC01CB018AAB9BAB79
:10143000ACABBDAB6AA97BA98CA99DA920E030E02B
:101440004AEF54E40E941702DC01CB018EA79FA74C
:10145000A8ABB9AB6EA57FA588A999A920E030E01B
:1014600040E85FE30E941D0488232CF481E090E0B3
:101470009DA78CA73FC06EA57FA588A999A920E04C
:101480003FEF4FE757E40E94BD0318164CF56AA9D9
:101490007BA98CA99DA920E030E040E251E40E94A4
:1014A0001702DC01CB01BC01CD010E944100DC012F
:1014B000CB019DA78CA70FC088EC90E09BA78AA7C3
:1014C0008AA59BA50197F1F79BA78AA78CA59DA547
:1014D00001979DA78CA78CA59DA5009769F724C0AF
:1014E0006EA57FA588A999A90E944100DC01CB01C6
:1014F0009DA78CA78CA59DA599A788A788A599A528
:101500000197F1F799A788A70FC06FA978AD89ADAA
:101510009AAD0E944100DC01CB018EAB8EA98FA356
:101520008FA18A95F1F78FA38FE061E00E94DC0B19
:1015300080E090E0ACE1B2E48BA39CA3ADA3BEA39A
:101540006BA17CA18DA19EA12BEA3AEA4AE250E46C
:101550000E941702DC01CB018F8F98A3A9A3BAA325
:101560006F8D78A189A19AA120E030E040E85FE387
:101570000E941D0488231CF481E08E8F91C06F8D22
:1015800078A189A19AA120E030E04FE753E40E94BE
:10159000BD0318160CF07BC06BA17CA18DA19EA190
:1015A00020E030E04AE754E40E941103DC01CB0163
:1015B0008A8F9B8FAC8FBD8F6A8D7B8D8C8D9D8D1F
:1015C00020E030E04AEF54E40E941702DC01CB0136
:1015D0008E8B9F8BA88FB98F6E897F89888D998D0F
:1015E00020E030E040E85FE30E941D0488232CF4F3
:1015F00081E090E09D8B8C8B3FC06E897F89888DC8
:10160000998D20E03FEF4FE757E40E94BD03181685
:101610004CF56A8D7B8D8C8D9D8D20E030E040E215
:1016200051E40E941702DC01CB01BC01CD010E94F4
:101630004100DC01CB019D8B8C8B0FC088EC90E0CE
:101640009B8B8A8B8A899B890197F1F79B8B8A8B6D
:101650008C899D8901979D8B8C8B8C899D890097A6
:1016600069F724C06E897F89888D998D0E94410019
:10167000DC01CB019D8B8C8B8C899D89998B888B10
:10168000888999890197F1F7998B888B0FC06F8DA5
:1016900078A189A19AA10E944100DC01CB018E8F23
:1016A0008E8D8F878F858A95F1F78F8781E061E036
:1016B0000E94DC0B8AE097EDA3ECBFE38B879C874D
:1016C000AD87BE876B857C858D859E8520E030E06B
:1016D0004AEF54E40E941702DC01CB018F83988704
:1016E000A987BA876F81788589859A8520E030E05F
:1016F00040E85FE30E941D0488232CF481E090E021
:101700009E838D833FC06F81788589859A8520E08F
:101710003FEF4FE757E40E94BD0318164CF56B8569
:101720007C858D859E8520E030E040E251E40E947A
:101730001702DC01CB01BC01CD010E944100DC019C
:10174000CB019E838D830FC088EC90E09C838B83BC
:101750008B819C810197F1F79C838B838D819E8186
:1017600001979E838D838D819E81009769F714C0B8
:101770006F81788589859A850E944100DC01CB01C3
:101780009E838D838D819E819A83898389819A81AD
:101790000197F1F79A83898386E061E00E94DC0B70
:1017A000C45BDF4F0FB6F894DEBF0FBECDBFCF9145
:1017B000DF911F910F9108950F931F93DF93CF93A4
:1017C000CDB7DEB7C356D0400FB6F894DEBF0FBE1C
:1017D000CDBFFE01EF59FF4F8083FE01EE59FF4F51
:1017E0006083FE01EE59FF4F8081813009F078C29D
:1017F00080E060E00E94470681E060E00E944706CA
:1018000082E061E00E944706FE01EF59FF4F8081B0
:10181000982F991F9927991F8AE0692F0E944706E0
:10182000FE01EF59FF4F80818295869586958370E2
:10183000982F917089E0692F0E944706FE01EF59A9
:10184000FF4F8081829586958770982F917088E0F0
:10185000692F0E944706FE01EF59FF4F8081829554
:101860008F70982F917087E0692F0E944706FE01C4
:10187000EF59FF4F8081869586958695982F9170B8
:1018800086E0692F0E944706FE01EF59FF4F8081D5
:1018900086958695982F917085E0692F0E9447065E
:1018A000FE01EF59FF4F80818695982F917084E05B
:1018B000692F0E944706FE01EF59FF4F8081982F44
:1018C000917083E0692F0E944706FE01E35AFF4FA3
:1018D00080E090E0A8E4B2E480839183A283B383A4
:1018E0008E01075A1F4FFE01E35AFF4F608171813D
:1018F000828193812BEA3AEA4AE250E40E9417027D
:10190000DC01CB01F80180839183A283B383FE01C4
:10191000E75AFF4F608171818281938120E030E03E
:1019200040E85FE30E941D04882334F4FE01E85A76
:10193000FF4F81E08083E0C0FE01E75AFF4F6081E6
:1019400071818281938120E030E04FE753E40E946F
:10195000BD0318160CF0C0C0FE01E35AFF4F6081B2
:1019600071818281938120E030E04AE754E40E9453
:101970001103DC01CB01FE01EC5AFF4F8083918300
:10198000A283B3838E01005B1F4FFE01EC5AFF4F11
:10199000608171818281938120E030E04AEF54E4DC
:1019A0000E941702DC01CB01F80180839183A2839E
:1019B000B383FE01E05BFF4F60817181828193817F
:1019C00020E030E040E85FE30E941D04882344F4F7
:1019D000FE01E25BFF4F81E090E09183808364C071
:1019E000FE01E05BFF4F608171818281938120E085
:1019F0003FEF4FE757E40E94BD0318160CF043C0B9
:101A0000FE01EC5AFF4F608171818281938120E059
:101A100030E040E251E40E941702DC01CB018E016C
:101A2000025B1F4FBC01CD010E944100DC01CB01D4
:101A3000F801918380831FC0FE01E45BFF4F88ECB7
:101A400090E091838083FE01E45BFF4F8081918170
:101A50000197F1F7FE01E45BFF4F91838083DE0184
:101A6000A25BBF4FFE01E25BFF4F80819181019736
:101A700011969C938E93FE01E25BFF4F80819181D2
:101A80000097D1F64BC08E01025B1F4FFE01E05B59
:101A9000FF4F60817181828193810E944100DC014E
:101AA000CB01F80191838083DE01A65BBF4FFE016D
:101AB000E25BFF4F8081918111969C938E93FE0192
:101AC000E65BFF4F808191810197F1F7FE01E65BB4
:101AD000FF4F9183808322C08E01085A1F4FFE0161
:101AE000E75AFF4F60817181828193810E9441009A
:101AF000DC01CB01F8018083DE01A75BBF4FFE0153
:101B0000E85AFF4F80818C93FE01E75BFF4F808195
:101B10008A95F1F7FE01E75BFF4F808382E060E08A
:101B20000E944706FE01EB5BFF4F80E090E0A8E4D7
:101B3000B2E480839183A283B3838E010F5B1F4F36
:101B4000FE01EB5BFF4F60817181828193812BEA03
:101B50003AEA4AE250E40E941702DC01CB01F801A4
:101B600080839183A283B383FE01EF5BFF4F60818B
:101B700071818281938120E030E040E85FE30E9440
:101B80001D04882334F481E0FE01E05CFF4F808374
:101B90009DC0FE01EF5BFF4F608171818281938167
:101BA00020E030E04FE753E40E94BD0318160CF02C
:101BB0007EC0FE01EB5BFF4F60817181828193816A
:101BC00020E030E04AE754E40E941103DC01CB013D
:101BD0008CAF9DAFAEAFBFAF6CAD7DAD8EAD9FADE9
:101BE00020E030E04AEF54E40E941702DC01CB0110
:101BF00088AF99AFAAAFBBAF68AD79AD8AAD9BADE9
:101C000020E030E040E85FE30E941D0488232CF4CC
:101C100081E090E09FAB8EAB3FC068AD79AD8AADFF
:101C20009BAD20E03FEF4FE757E40E94BD0318163D
:101C30004CF56CAD7DAD8EAD9FAD20E030E040E267
:101C400051E40E941702DC01CB01BC01CD010E94CE
:101C50004100DC01CB019FAB8EAB0FC088EC90E064
:101C60009DAB8CAB8CA99DA90197F1F79DAB8CAB7B
:101C70008EA99FA901979FAB8EAB8EA99FA90097B4
:101C800069F728C268AD79AD8AAD9BAD0E9441006D
:101C9000DC01CB019FAB8EAB8EA99FA99BAB8AAB1E
:101CA0008AA99BA90197F1F79BAB8AAB13C2FE01EE
:101CB000EF5BFF4F60817181828193810E944100BF
:101CC000DC01CB01FE01E05CFF4F8083FE01E05CA4
:101CD000FF4F808189AB89A98A95F1F789ABFAC159
:101CE000FE01EE59FF4F8081823009F0EEC180E0A5
:101CF00061E00E94470681E060E00E94470682E0C2
:101D000061E00E944706FE01EF59FF4F8081982F46
:101D1000991F9927991F8AE0692F0E944706FE01A3
:101D2000EF59FF4F80818295869586958370982F15
:101D3000917089E0692F0E944706FE01EF59FF4F1D
:101D40008081829586958770982F917088E0692FA1
:101D50000E944706FE01EF59FF4F808182958F70E8
:101D6000982F917087E0692F0E944706FE01EF5976
:101D7000FF4F8081869586958695982F917086E095
:101D8000692F0E944706FE01EF59FF4F808186951B
:101D90008695982F917085E0692F0E944706FE0175
:101DA000EF59FF4F80818695982F917084E0692FBD
:101DB0000E944706FE01EF59FF4F8081982F9170D6
:101DC00083E0692F0E94470680E090E0A8E4B2E437
:101DD0008DA79EA7AFA7B8AB6DA57EA58FA598A927
:101DE0002BEA3AEA4AE250E40E941702DC01CB01F6
:101DF00089A79AA7ABA7BCA769A57AA58BA59CA51F
:101E000020E030E040E85FE30E941D0488231CF4DA
:101E100081E088A791C069A57AA58BA59CA520E043
:101E200030E04FE753E40E94BD0318160CF07BC06E
:101E30006DA57EA58FA598A920E030E04AE754E47F
:101E40000E941103DC01CB018CA39DA3AEA3BFA311
:101E50006CA17DA18EA19FA120E030E04AEF54E467
:101E60000E941702DC01CB0188A399A3AAA3BBA3FC
:101E700068A179A18AA19BA120E030E040E85FE35E
:101E80000E941D0488232CF481E090E09F8F8E8FA8
:101E90003FC068A179A18AA19BA120E03FEF4FE755
:101EA00057E40E94BD0318164CF56CA17DA18EA1CC
:101EB0009FA120E030E040E251E40E941702DC01E3
:101EC000CB01BC01CD010E944100DC01CB019F8F01
:101ED0008E8F0FC088EC90E09D8F8C8F8C8D9D8DA8
:101EE0000197F1F79D8F8C8F8E8D9F8D01979F8F1E
:101EF0008E8F8E8D9F8D009769F724C068A179A180
:101F00008AA19BA10E944100DC01CB019F8F8E8F93
:101F10008E8D9F8D9B8F8A8F8A8D9B8D0197F1F778
:101F20009B8F8A8F0FC069A57AA58BA59CA50E945F
:101F30004100DC01CB0188A788A5898F898D8A950E
:101F4000F1F7898F82E060E00E94470680E090E030
:101F5000A8E4B2E48D8B9E8BAF8BB88F6D897E89A0
:101F60008F89988D2BEA3AEA4AE250E40E941702E0
:101F7000DC01CB01898B9A8BAB8BBC8B69897A890D
:101F80008B899C8920E030E040E85FE30E941D04DB
:101F900088231CF481E0888B91C069897A898B89B8
:101FA0009C8920E030E04FE753E40E94BD031816FF
:101FB0000CF07BC06D897E898F89988D20E030E0A0
:101FC0004AE754E40E941103DC01CB018C879D8712
:101FD000AE87BF876C857D858E859F8520E030E04C
:101FE0004AEF54E40E941702DC01CB0188879987ED
:101FF000AA87BB87688579858A859B8520E030E044
:1020000040E85FE30E941D0488232CF481E090E007
:102010009F838E833FC0688579858A859B8520E074
:102020003FEF4FE757E40E94BD0318164CF56C854F
:102030007D858E859F8520E030E040E251E40E945E
:102040001702DC01CB01BC01CD010E944100DC0183
:10205000CB019F838E830FC088EC90E09D838C839F
:102060008C819D810197F1F79D838C838E819F8167
:1020700001979F838E838E819F81009769F72AC085
:10208000688579858A859B850E944100DC01CB01AA
:102090009F838E838E819F819B838A838A819B818C
:1020A0000197F1F79B838A8315C069897A898B89A7
:1020B0009C890E944100DC01CB01888B888989833F
:1020C00089818A95F1F7898305C0F1E0A496FFAF75
:1020D000A49703C0A4961FAEA497A4968FADA4970F
:1020E000CD59DF4F0FB6F894DEBF0FBECDBFCF91F5
:1020F000DF911F910F910895DF93CF9300D0CDB75B
:10210000DEB79A8389830BC0E981FA81808162E01E
:102110000E94DC0B89819A8101969A838983E981E7
:10212000FA818081882381F780E00F900F90CF9112
:10213000DF910895DF93CF9300D000D00F92CDB7F9
:10214000DEB789836A838981282F30E03D832C8321
:102150008C819D81009731F02C813D8121303105AA
:1021600039F00CC08A81805861E00E94DC0B09C004
:102170008A81805461E00E94DC0B03C031E03B8324
:1021800001C01B828B810F900F900F900F900F90CA
:10219000CF91DF910895DF93CF9300D000D0CDB7DA
:1021A000DEB78A837C836B838A81883008F58A81D5
:1021B000882F90E00896880F991F880F991F880F25
:1021C000991F61E00E94DC0B19820FC08981282FC2
:1021D00030E08B819C81FC01E20FF31F808162E083
:1021E0000E94DC0B89818F5F89838981883070F33D
:1021F00080E00F900F900F900F90CF91DF91089596
:10220000DF93CF930F92CDB7DEB78983898162E0E8
:102210000E94DC0B80E00F90CF91DF910895DF9357
:10222000CF93CDB7DEB7EAE3F0E08FEF8083EBE347
:10223000F0E01082E7E3F0E08FEF8083E8E3F0E086
:102240001082E4E3F0E08FE08083E5E3F0E080EFEC
:102250008083E1E3F0E08FEF8083E2E3F0E010823F
:10226000CF91DF910895DF93CF9300D000D000D0BD
:10227000CDB7DEB78B836C838B81869586958695EB
:102280008A838B81877089838A81282F30E03E83FF
:102290002D838D819E818130910509F443C02D816C
:1022A0003E81223031052CF48D819E81009771F0A2
:1022B000BCC02D813E812230310509F45FC08D8183
:1022C0009E818330910509F485C0AFC08C8188233D
:1022D000A1F4AAE3B0E0EAE3F0E08081482F89812D
:1022E000282F30E081E090E0022E02C0880F991F75
:1022F0000A94E2F7842B8C9398C0AAE3B0E0EAE357
:10230000F0E08081482F8981282F30E081E090E043
:10231000022E02C0880F991F0A94E2F78095842349
:102320008C9383C08C818823A1F4A7E3B0E0E7E31A
:10233000F0E08081482F8981282F30E081E090E013
:10234000022E02C0880F991F0A94E2F7842B8C9307
:102350006CC0A7E3B0E0E7E3F0E08081482F89811B
:10236000282F30E081E090E0022E02C0880F991FF4
:102370000A94E2F7809584238C9357C08C8188233C
:10238000A1F4A4E3B0E0E4E3F0E08081482F898188
:10239000282F30E081E090E0022E02C0880F991FC4
:1023A0000A94E2F7842B8C9340C0A4E3B0E0E4E30A
:1023B000F0E08081482F8981282F30E081E090E093
:1023C000022E02C0880F991F0A94E2F78095842399
:1023D0008C932BC08C818823A1F4A1E3B0E0E1E3CE
:1023E000F0E08081482F8981282F30E081E090E063
:1023F000022E02C0880F991F0A94E2F7842B8C9357
:1024000014C0A1E3B0E0E1E3F0E08081482F8981CE
:10241000282F30E081E090E0022E02C0880F991F43
:102420000A94E2F7809584238C9326960FB6F8944D
:10243000DEBF0FBECDBFCF91DF910895DF93CF9365
:1024400000D000D000D0CDB7DEB78B836C838B81FA
:102450008695869586958A838B81877089838A8104
:10246000282F30E03E832D838D819E818130910520
:1024700009F4BCC02D813E81223031052CF48D81C0
:102480009E81009771F0A0C22D813E8122303105DE
:1024900009F451C18D819E818330910509F4F0C109
:1024A00093C28C81882331F5AAE3B0E0EAE3F0E03F
:1024B0008081482F8981282F30E081E090E002C0A0
:1024C000880F991F2A95E2F7842B8C93ABE3B0E039
:1024D000EBE3F0E08081482F8981282F30E081E014
:1024E00090E0022E02C0880F991F0A94E2F7842B15
:1024F0008C936AC28C81823041F5AAE3B0E0EAE3B2
:10250000F0E08081482F8981282F30E081E090E041
:1025100002C0880F991F2A95E2F7809584238C9337
:10252000ABE3B0E0EBE3F0E08081482F8981282F16
:1025300030E081E090E0022E02C0880F991F0A94DB
:10254000E2F7809584238C933FC28C81833039F5E8
:10255000AAE3B0E0EAE3F0E08081482F8981282FE8
:1025600030E081E090E002C0880F991F2A95E2F7E1
:10257000809584238C93ABE3B0E0EBE3F0E08081C3
:10258000482F8981282F30E081E090E0022E02C0A0
:10259000880F991F0A94E2F7842B8C9315C2AAE343
:1025A000B0E0EAE3F0E08081482F8981282F30E015
:1025B00081E090E002C0880F991F2A95E2F7842BF2
:1025C0008C93ABE3B0E0EBE3F0E08081482F8981AE
:1025D000282F30E081E090E0022E02C0880F991F82
:1025E0000A94E2F7809584238C93EEC18C81882332
:1025F00031F5A7E3B0E0E7E3F0E08081482F89817F
:10260000282F30E081E090E002C0880F991F2A95C2
:10261000E2F7842B8C93A8E3B0E0E8E3F0E080815C
:10262000482F8981282F30E081E090E0022E02C0FF
:10263000880F991F0A94E2F7842B8C93C5C18C8173
:10264000823041F5A7E3B0E0E7E3F0E08081482F76
:102650008981282F30E081E090E002C0880F991F27
:102660002A95E2F7809584238C93A8E3B0E0E8E311
:10267000F0E08081482F8981282F30E081E090E0D0
:10268000022E02C0880F991F0A94E2F780958423D6
:102690008C939AC18C81833039F5A7E3B0E0E7E3EE
:1026A000F0E08081482F8981282F30E081E090E0A0
:1026B00002C0880F991F2A95E2F7809584238C9396
:1026C000A8E3B0E0E8E3F0E08081482F8981282F7B
:1026D00030E081E090E0022E02C0880F991F0A943A
:1026E000E2F7842B8C9370C1A7E3B0E0E7E3F0E05E
:1026F0008081482F8981282F30E081E090E002C05E
:10270000880F991F2A95E2F7842B8C93A8E3B0E0F9
:10271000E8E3F0E08081482F8981282F30E081E0D4
:1027200090E0022E02C0880F991F0A94E2F780956C
:1027300084238C9349C18C81882331F5A4E3B0E0D4
:10274000E4E3F0E08081482F8981282F30E081E0A8
:1027500090E002C0880F991F2A95E2F7842B8C9392
:10276000A5E3B0E0E5E3F0E08081482F8981282FE0
:1027700030E081E090E0022E02C0880F991F0A9499
:10278000E2F7842B8C9320C18C81823041F5A4E345
:10279000B0E0E4E3F0E08081482F8981282F30E029
:1027A00081E090E002C0880F991F2A95E2F780959A
:1027B00084238C93A5E3B0E0E5E3F0E08081482F2B
:1027C0008981282F30E081E090E0022E02C0880F3E
:1027D000991F0A94E2F7809584238C93F5C08C812D
:1027E000833039F5A4E3B0E0E4E3F0E08081482FE2
:1027F0008981282F30E081E090E002C0880F991F86
:102800002A95E2F7809584238C93A5E3B0E0E5E375
:10281000F0E08081482F8981282F30E081E090E02E
:10282000022E02C0880F991F0A94E2F7842B8C9322
:10283000CBC0A4E3B0E0E4E3F0E08081482F8981DD
:10284000282F30E081E090E002C0880F991F2A9580
:10285000E2F7842B8C93A5E3B0E0E5E3F0E0808120
:10286000482F8981282F30E081E090E0022E02C0BD
:10287000880F991F0A94E2F7809584238C93A4C053
:102880008C81882331F5A1E3B0E0E1E3F0E08081C1
:10289000482F8981282F30E081E090E002C0880F26
:1028A000991F2A95E2F7842B8C93A2E3B0E0E2E330
:1028B000F0E08081482F8981282F30E081E090E08E
:1028C000022E02C0880F991F0A94E2F7842B8C9382
:1028D0007BC08C81823041F5A1E3B0E0E1E3F0E020
:1028E0008081482F8981282F30E081E090E002C06C
:1028F000880F991F2A95E2F7809584238C93A2E391
:10290000B0E0E2E3F0E08081482F8981282F30E0B9
:1029100081E090E0022E02C0880F991F0A94E2F72E
:10292000809584238C9350C08C81833039F5A1E34A
:10293000B0E0E1E3F0E08081482F8981282F30E08A
:1029400081E090E002C0880F991F2A95E2F78095F8
:1029500084238C93A2E3B0E0E2E3F0E08081482F8F
:102960008981282F30E081E090E0022E02C0880F9C
:10297000991F0A94E2F7842B8C9326C0A1E3B0E060
:10298000E1E3F0E08081482F8981282F30E081E069
:1029900090E002C0880F991F2A95E2F7842B8C9350
:1029A000A2E3B0E0E2E3F0E08081482F8981282FA4
:1029B00030E081E090E0022E02C0880F991F0A9457
:1029C000E2F7809584238C9326960FB6F894DEBFA9
:1029D0000FBECDBFCF91DF910895DF93CF93CDB7D9
:1029E000DEB72F970FB6F894DEBF0FBECDBF0E94A3
:1029F0000F110E9415090E943F088F878F858A3327
:102A000018F48F85803390F48F858B3279F08F8521
:102A10008D3261F08F858A3249F08F858F3231F0A7
:102A20008F85833219F08F858D3321F48F8562E095
:102A30000E94DC0B80E090E0AAEFB3E48B879C87D8
:102A4000AD87BE876B857C858D859E8520E030E0D7
:102A50004AEF54E40E941702DC01CB018F83988770
:102A6000A987BA876F81788589859A8520E030E0CB
:102A700040E85FE30E941D0488232CF481E090E08D
:102A80009E838D833FC06F81788589859A8520E0FC
:102A90003FEF4FE757E40E94BD0318164CF56B85D6
:102AA0007C858D859E8520E030E040E251E40E94E7
:102AB0001702DC01CB01BC01CD010E944100DC0109
:102AC000CB019E838D830FC088EC90E09C838B8329
:102AD0008B819C810197F1F79C838B838D819E81F3
:102AE00001979E838D838D819E81009769F783CFA7
:102AF0006F81788589859A850E944100DC01CB0130
:102B00009E838D838D819E819A83898389819A8119
:102B10000197F1F79A8389836ECF2F923F924F925C
:102B20005F926F927F928F929F92AF92BF92CF925D
:102B3000DF92EF92FF920F931F93CF93DF93CDB766
:102B4000DEB7CA1BDB0B0FB6F894DEBF0FBECDBFDE
:102B500009942A88398848885F846E847D848C84AF
:102B60009B84AA84B984C884DF80EE80FD800C81B8
:102B70001B81AA81B981CE0FD11D0FB6F894DEBF9B
:0C2B80000FBECDBFED010895F894FFCF0B
:102B8C0000000000000000003132332B3435362DAC
:082B9C003738392A23303D2FA0
:00000001FF
