:100000000C942A000C9434000C9434000C943400AA
:100010000C9434000C9434000C9434000C94340090
:100020000C9434000C9434000C9434000C94340080
:100030000C9434000C9434000C9434000C94340070
:100040000C9434000C9434000C9434000C94340060
:100050000C94340011241FBECFE5D8E0DEBFCDBF25
:100060000E9436000C946F000C940000DF93CF9335
:100070000F92CDB7DEB7AAE3B0E0EAE3F0E080810B
:100080008E7F8C93ABE3B0E0EBE3F0E080818160A6
:100090008C93AAE3B0E0EAE3F0E0808180688C937F
:1000A000ABE3B0E0EBE3F0E080818F778C93E9E3A2
:1000B000F0E08081817089838981882341F4ABE3FA
:1000C000B0E0EBE3F0E0808180688C93F0CFABE3AD
:1000D000B0E0EBE3F0E080818F778C93E8CFF89489
:0200E000FFCF50
:00000001FF
