:100000000C942A000C9434000C9434000C943400AA
:100010000C9434000C9434000C9434000C94340090
:100020000C9434000C9434000C9434000C94340080
:100030000C9434000C9434000C9434000C94340070
:100040000C9434000C9434000C9434000C94340060
:100050000C94340011241FBECFE5D8E0DEBFCDBF25
:100060000E940C060C942D060C940000DF93CF9395
:1000700000D000D000D0CDB7DEB78B836C838B81EE
:100080008695869586958A838B81877089838A81F8
:10009000282F30E03E832D838D819E818130910514
:1000A00009F443C02D813E81223031052CF48D812D
:1000B0009E81009771F0BCC02D813E8122303105B8
:1000C00009F45FC08D819E818330910509F485C05C
:1000D000AFC08C818130A1F4ABE3B0E0EBE3F0E0A2
:1000E0008081482F8981282F30E081E090E0022E26
:1000F00002C0880F991F0A94E2F7842B8C9398C052
:10010000ABE3B0E0EBE3F0E08081482F8981282F5A
:1001100030E081E090E0022E02C0880F991F0A941F
:10012000E2F7809584238C9383C08C818130A1F485
:10013000A8E3B0E0E8E3F0E08081482F8981282F30
:1001400030E081E090E0022E02C0880F991F0A94EF
:10015000E2F7842B8C936CC0A8E3B0E0E8E3F0E016
:100160008081482F8981282F30E081E090E0022EA5
:1001700002C0880F991F0A94E2F7809584238C931C
:1001800057C08C818130A1F4A5E3B0E0E5E3F0E055
:100190008081482F8981282F30E081E090E0022E75
:1001A00002C0880F991F0A94E2F7842B8C9340C0F9
:1001B000A5E3B0E0E5E3F0E08081482F8981282FB6
:1001C00030E081E090E0022E02C0880F991F0A946F
:1001D000E2F7809584238C932BC08C818130A1F42D
:1001E000A2E3B0E0E2E3F0E08081482F8981282F8C
:1001F00030E081E090E0022E02C0880F991F0A943F
:10020000E2F7842B8C9314C0A2E3B0E0E2E3F0E0C9
:100210008081482F8981282F30E081E090E0022EF4
:1002200002C0880F991F0A94E2F7809584238C936B
:1002300026960FB6F894DEBF0FBECDBFCF91DF91EB
:100240000895DF93CF9300D000D00F92CDB7DEB7E3
:100250008B838B818695869586958A838B81877023
:1002600089838A81282F30E03D832C838C819D8176
:100270008130910549F12C813D81223031052CF4EA
:100280008C819D81009761F05AC02C813D81223084
:10029000310571F18C819D8183309105E9F14FC069
:1002A000ABE3B0E0EBE3F0E08081482F8981282FB9
:1002B00030E081E090E0022E02C0880F991F0A947E
:1002C000E2F784278C933BC0A8E3B0E0E8E3F0E0DA
:1002D0008081482F8981282F30E081E090E0022E34
:1002E00002C0880F991F0A94E2F784278C9327C0D5
:1002F000A5E3B0E0E5E3F0E08081482F8981282F75
:1003000030E081E090E0022E02C0880F991F0A942D
:10031000E2F784278C9313C0A2E3B0E0E2E3F0E0BD
:100320008081482F8981282F30E081E090E0022EE3
:1003300002C0880F991F0A94E2F784278C930F90CC
:100340000F900F900F900F90CF91DF910895DF9352
:10035000CF9300D000D000D0CDB7DEB78B838B8198
:100360008695869586958A838B81877089838A8115
:10037000282F30E03E832D834D815E814130510531
:1003800049F18D819E818230910534F42D813E8129
:100390002115310561F057C04D815E814230510514
:1003A00061F18D819E8183309105D1F14CC0E9E3EB
:1003B000F0E08081282F30E08981882F90E0A9012A
:1003C00002C0559547958A95E2F7CA01582F51709A
:1003D0005C833AC0E6E3F0E08081282F30E0898139
:1003E000882F90E0A90102C0559547958A95E2F7BC
:1003F000CA01582F51705C8327C0E3E3F0E080818D
:10040000282F30E08981882F90E0A90102C05595FE
:1004100047958A95E2F7CA01582F51705C8314C042
:10042000E0E3F0E08081282F30E08981882F90E0A0
:10043000A90102C0559547958A95E2F7CA01582F40
:1004400051705C8301C01C828C8126960FB6F89493
:10045000DEBF0FBECDBFCF91DF910895DF93CF9365
:10046000CDB7DEB7EAE3F0E08FEF8083EBE3F0E0B7
:100470001082E7E3F0E08FEF8083E8E3F0E01082A2
:10048000E4E3F0E08FE08083E5E3F0E080EF808359
:10049000E1E3F0E08FEF8083E2E3F0E01082CF91C0
:1004A000DF910895DF93CF9300D000D000D0CDB777
:1004B000DEB78B836C838B818695869586958A8340
:1004C0008B81877089838A81282F30E03E832D833A
:1004D0008D819E818130910509F443C02D813E813B
:1004E000223031052CF48D819E81009771F0BCC0C3
:1004F0002D813E812230310509F45FC08D819E81BE
:100500008330910509F485C0AFC08C818823A1F4A4
:10051000AAE3B0E0EAE3F0E08081482F8981282F48
:1005200030E081E090E0022E02C0880F991F0A940B
:10053000E2F7842B8C9398C0AAE3B0E0EAE3F0E002
:100540008081482F8981282F30E081E090E0022EC1
:1005500002C0880F991F0A94E2F7809584238C9338
:1005600083C08C818823A1F4A7E3B0E0E7E3F0E047
:100570008081482F8981282F30E081E090E0022E91
:1005800002C0880F991F0A94E2F7842B8C936CC0E9
:10059000A7E3B0E0E7E3F0E08081482F8981282FCE
:1005A00030E081E090E0022E02C0880F991F0A948B
:1005B000E2F7809584238C9357C08C818823A1F423
:1005C000A4E3B0E0E4E3F0E08081482F8981282FA4
:1005D00030E081E090E0022E02C0880F991F0A945B
:1005E000E2F7842B8C9340C0A4E3B0E0E4E3F0E0B6
:1005F0008081482F8981282F30E081E090E0022E11
:1006000002C0880F991F0A94E2F7809584238C9387
:100610002BC08C818823A1F4A1E3B0E0E1E3F0E0FA
:100620008081482F8981282F30E081E090E0022EE0
:1006300002C0880F991F0A94E2F7842B8C9314C090
:10064000A1E3B0E0E1E3F0E08081482F8981282F29
:1006500030E081E090E0022E02C0880F991F0A94DA
:10066000E2F7809584238C9326960FB6F894DEBF2C
:100670000FBECDBFCF91DF910895DF93CF9300D010
:1006800000D000D0CDB7DEB78B836C838B8186958D
:10069000869586958A838B81877089838A81282FA6
:1006A00030E03E832D838D819E818130910509F458
:1006B000BCC02D813E81223031052CF48D819E817C
:1006C000009771F0A0C22D813E812230310509F4DE
:1006D00051C18D819E818330910509F4F0C193C28F
:1006E0008C81882331F5AAE3B0E0EAE3F0E0808171
:1006F000482F8981282F30E081E090E002C0880FE8
:10070000991F2A95E2F7842B8C93ABE3B0E0EBE3DF
:10071000F0E08081482F8981282F30E081E090E04F
:10072000022E02C0880F991F0A94E2F7842B8C9343
:100730006AC28C81823041F5AAE3B0E0EAE3F0E0DE
:100740008081482F8981282F30E081E090E002C02D
:10075000880F991F2A95E2F7809584238C93ABE349
:10076000B0E0EBE3F0E08081482F8981282F30E072
:1007700081E090E0022E02C0880F991F0A94E2F7F0
:10078000809584238C933FC28C81833039F5AAE312
:10079000B0E0EAE3F0E08081482F8981282F30E043
:1007A00081E090E002C0880F991F2A95E2F78095BA
:1007B00084238C93ABE3B0E0EBE3F0E08081482F3F
:1007C0008981282F30E081E090E0022E02C0880F5E
:1007D000991F0A94E2F7842B8C9315C2AAE3B0E028
:1007E000EAE3F0E08081482F8981282F30E081E022
:1007F00090E002C0880F991F2A95E2F7842B8C9312
:10080000ABE3B0E0EBE3F0E08081482F8981282F53
:1008100030E081E090E0022E02C0880F991F0A9418
:10082000E2F7809584238C93EEC18C81882331F587
:10083000A7E3B0E0E7E3F0E08081482F8981282F2B
:1008400030E081E090E002C0880F991F2A95E2F71E
:10085000842B8C93A8E3B0E0E8E3F0E08081482F9C
:100860008981282F30E081E090E0022E02C0880FBD
:10087000991F0A94E2F7842B8C93C5C18C81823036
:1008800041F5A7E3B0E0E7E3F0E08081482F8981FC
:10089000282F30E081E090E002C0880F991F2A9550
:1008A000E2F7809584238C93A8E3B0E0E8E3F0E0DE
:1008B0008081482F8981282F30E081E090E0022E4E
:1008C00002C0880F991F0A94E2F7809584238C93C5
:1008D0009AC18C81833039F5A7E3B0E0E7E3F0E01B
:1008E0008081482F8981282F30E081E090E002C08C
:1008F000880F991F2A95E2F7809584238C93A8E3AB
:10090000B0E0E8E3F0E08081482F8981282F30E0D3
:1009100081E090E0022E02C0880F991F0A94E2F74E
:10092000842B8C9370C1A7E3B0E0E7E3F0E0808113
:10093000482F8981282F30E081E090E002C0880FA5
:10094000991F2A95E2F7842B8C93A8E3B0E0E8E3A3
:10095000F0E08081482F8981282F30E081E090E00D
:10096000022E02C0880F991F0A94E2F78095842313
:100970008C9349C18C81882331F5A4E3B0E0E4E392
:10098000F0E08081482F8981282F30E081E090E0DD
:1009900002C0880F991F2A95E2F7842B8C93A5E358
:1009A000B0E0E5E3F0E08081482F8981282F30E036
:1009B00081E090E0022E02C0880F991F0A94E2F7AE
:1009C000842B8C9320C18C81823041F5A4E3B0E06C
:1009D000E4E3F0E08081482F8981282F30E081E036
:1009E00090E002C0880F991F2A95E2F78095842332
:1009F0008C93A5E3B0E0E5E3F0E08081482F8981A6
:100A0000282F30E081E090E0022E02C0880F991F6D
:100A10000A94E2F7809584238C93F5C08C8183300F
:100A200039F5A4E3B0E0E4E3F0E08081482F898168
:100A3000282F30E081E090E002C0880F991F2A95AE
:100A4000E2F7809584238C93A5E3B0E0E5E3F0E042
:100A50008081482F8981282F30E081E090E0022EAC
:100A600002C0880F991F0A94E2F7842B8C93CBC0A5
:100A7000A4E3B0E0E4E3F0E08081482F8981282FEF
:100A800030E081E090E002C0880F991F2A95E2F7DC
:100A9000842B8C93A5E3B0E0E5E3F0E08081482F60
:100AA0008981282F30E081E090E0022E02C0880F7B
:100AB000991F0A94E2F7809584238C93A4C08C81BB
:100AC000882331F5A1E3B0E0E1E3F0E08081482F35
:100AD0008981282F30E081E090E002C0880F991FC3
:100AE0002A95E2F7842B8C93A2E3B0E0E2E3F0E0F6
:100AF0008081482F8981282F30E081E090E0022E0C
:100B000002C0880F991F0A94E2F7842B8C937BC054
:100B10008C81823041F5A1E3B0E0E1E3F0E0808137
:100B2000482F8981282F30E081E090E002C0880FB3
:100B3000991F2A95E2F7809584238C93A2E3B0E075
:100B4000E2E3F0E08081482F8981282F30E081E0C6
:100B500090E0022E02C0880F991F0A94E2F7809558
:100B600084238C9350C08C81833039F5A1E3B0E0AD
:100B7000E1E3F0E08081482F8981282F30E081E097
:100B800090E002C0880F991F2A95E2F78095842390
:100B90008C93A2E3B0E0E2E3F0E08081482F89810A
:100BA000282F30E081E090E0022E02C0880F991FCC
:100BB0000A94E2F7842B8C9326C0A1E3B0E0E1E332
:100BC000F0E08081482F8981282F30E081E090E09B
:100BD00002C0880F991F2A95E2F7842B8C93A2E319
:100BE000B0E0E2E3F0E08081482F8981282F30E0F7
:100BF00081E090E0022E02C0880F991F0A94E2F76C
:100C0000809584238C9326960FB6F894DEBF0FBE92
:100C1000CDBFCF91DF910895DF93CF93CDB7DEB7EE
:100C20000E942E0280E161E00E94520280E161E0B8
:100C30000E94360087E160E00E94520280E10E943B
:100C4000A701882329F487E161E00E943600F6CFEE
:0E0C500087E160E00E943600F1CFF894FFCFFC
:00000001FF
