:100000000C942A000C9447000C9447000C94470071
:100010000C9447000C9447000C9447000C94470044
:100020000C9447000C9447000C9447000C94470034
:100030000C9447000C9447000C9447000C94470024
:100040000C9447000C9447000C9447000C94470014
:100050000C94470011241FBECFE5D8E0DEBFCDBF12
:1000600011E0A0E6B0E0E4E5F2E602C005900D92F2
:10007000AC38B107D9F711E0ACE8B1E001C01D928E
:10008000AC3AB107E1F70E947F1D0C9428310C9423
:100090000000A0E3B0E0EFE4F0E00C94F130A8E061
:1000A0004E010894811C911CF401BA2F1192BA954B
:1000B000E9F729833A834B835C836D837E838F8347
:1000C0009887CE010996FC011192AA95E9F7A986B5
:1000D000BA86CB86DC86ED86FE860F87188B298153
:1000E0003A814B815C812DA73EA74FA758AB790180
:1000F0008A018FEF9FEFA0E0B0E0E822F9220A2307
:100100001B231A014424552429853A854B855C8597
:1001100029A73AA74BA75CA759016A01A822B922CF
:10012000CA22DB223A0188249924C601B501A8011C
:1001300097010E94D2306DA37EA38FA398A7C4011C
:10014000B3010E94D23069A37AA38BA39CA3C601FA
:10015000B501A20191010E94D2307B018C01C40142
:10016000B3010E94D2305B016C0189A19AA1ABA1BD
:10017000BCA18E0D9F1DA01FB11F89A39AA3ABA385
:10018000BCA32DA13EA14FA158A5CA01AA27BB27F8
:1001900029A13AA14BA15CA1280F391F4A1F5B1F5F
:1001A00029A33AA34BA35CA32E153F054007510793
:1001B00040F480E090E0A1E0B0E0A80EB91ECA1EB5
:1001C000DB1E89A19AA1ABA1BCA19D0144275527A3
:1001D0002A0D3B1D4C1D5D1D2D8F3E8F4F8F58A34B
:1001E0006C01BB24AA248DA19EA1AFA1B8A5A070CB
:1001F000B070A80EB91ECA1EDB1EA98EBA8ECB8E99
:10020000DC8E9A8C8B8C7C8C9E8D6F8D78A1FE0100
:10021000719688E0DF011D928A95E9F72D8B9E8B00
:100220006F8B788F2D853E854F8558896DA57EA56E
:100230008FA598A90E94D2307B018C012D813E812F
:100240004F81588569A57AA58BA59CA50E94D230BF
:10025000E60EF71E081F191F6D897E898F89988DFC
:100260006E0D7F1D801F911F6D8B7E8B8F8B988FE6
:10027000EE892A2D392D482D572D7E2F8F89988D67
:10028000E096E2E10C940D31EF92FF920F93DF9331
:10029000CF93CDB7DEB760970FB6F894DEBF0FBE31
:1002A000CDBFA82F002309F461C07E010894E11C92
:1002B000F11C88E0F70111928A95E9F729833A83C6
:1002C0004B835C836D837E83AF83988780E2801B42
:1002D000E82FFF27E7FDF09549815A816B817C81EA
:1002E000181684F019861A861B861C86882799277B
:1002F0008E1B9F0B04C0440F551F661F771F8A95E6
:10030000D2F728C0202F332727FD3095DB01CA0103
:10031000022E04C0880F991FAA1FBB1F0A94D2F790
:1003200089879A87AB87BC8704C076956795579570
:100330004795EA95D2F78D819E81AF81B88504C03B
:10034000880F991FAA1FBB1F2A95D2F7482B592B3C
:100350006A2B7B2B4D875E876F87788B29853A8543
:100360004B855C856D857E85AF8598898A2F6096E3
:100370000FB6F894DEBF0FBECDBFCF91DF910F91C6
:10038000FF90EF900895EF92FF920F931F937B01E0
:100390008C0120E030E040E05FE40E94E40B882321
:1003A0008CF0C801B70120E030E040E05FE40E943B
:1003B000B0090E94440C9B01AC01205030404040E9
:1003C000504806C0C801B7010E94440C9B01AC0113
:1003D000B901CA011F910F91FF90EF900895AEE50A
:1003E000B0E0E5EFF1E00C94F130A8E04E010894A4
:1003F000811C911CF4016A2E11926A94E9F72983F9
:100400003A834B835C836D837E838F839887CE0191
:100410000996FC011192AA95E9F7A986BA86CB86BE
:10042000DC86ED86FE860F87188B29843A844B8400
:100430005C84ED84FE840F85188969807A808B80C6
:100440009C806DA67EA68FA698AA6D807E808F80E8
:100450009884E114F1040105110509F0B3C3621495
:1004600073048404950408F03DC100E0201600E008
:10047000300601E0400600E0500688F41FEF211628
:1004800031044104510439F030F048E0E42EF12CFD
:10049000012D112D18C0EE24FF24870114C020E087
:1004A000221620E0320620E0420621E0520630F01B
:1004B00038E1E32EF12C012D112D05C020E1E22EB3
:1004C000F12C012D112DD201C1010E2C04C0B695C5
:1004D000A795979587950A94D2F788589F4FDC0186
:1004E0002C9180E290E0A0E0B0E08E199F09A00B73
:1004F000B10B7C018D01E21AF10801091109E11427
:10050000F10401051105A1F10E2C04C0220C331CCD
:10051000441C551C0A94D2F7A40193010E2C04C06C
:10052000220F331F441F551F0A94D2F780E290E038
:100530008E199F096DA47EA48FA498A804C09694D8
:100540008794779467948A95D2F7622A732A842ACB
:10055000952AADA4BEA4CFA4D8A804C0AA0CBB1CE5
:10056000CC1CDD1CEA94D2F7ADA6BEA6CFA6D8AAB5
:100570006201EE24FF24CDAADEAAEFAAF8AE920112
:1005800081012070307009AF1AAF2BAF3CAFC401AE
:10059000B301A70196010E94B0307B018C01C40118
:1005A000B3012DA93EA94FA958AD0E94B030C90191
:1005B000DA013C014D01C401B30129AD3AAD4BADA7
:1005C0005CAD0E94D2309B01AC018701FF24EE2478
:1005D000ADA4BEA4CFA4D8A8C601AA27BB275701A3
:1005E0006801A82AB92ACA2ADB2AA216B306C406B9
:1005F000D506E0F408946108710881089108A20CFE
:10060000B31CC41CD51CA214B304C404D50470F0DC
:10061000A216B306C406D50648F40894610871080A
:1006200081089108A20CB31CC41CD51CA21AB30AE1
:10063000C40AD50AC601B5012DA93EA94FA958ADD6
:100640000E94B0307B018C01C601B5012DA93EA9E5
:100650004FA958AD0E94B030C901DA015C016D01AB
:10066000C601B50129AD3AAD4BAD5CAD0E94D230AB
:100670009B01AC018701FF24EE248DA59EA5AFA5AB
:10068000B8A9A070B070E82AF92A0A2B1B2BE21631
:10069000F30604071507C0F40894A108B108C108BF
:1006A000D108E20CF31C041D151DE214F30404052B
:1006B000150550F0E216F3060407150728F4089410
:1006C000A108B108C108D108D3019927882786015C
:1006D0007501E82AF92A0A2B1B2BE9AAFAAA0BAB07
:1006E0001CABCFC4211431044104510471F461E006
:1006F00070E080E090E020E030E040E050E00E94D8
:10070000B030C901DA011C012D0100E0201600E023
:10071000300601E0400600E0500688F41FEF211685
:1007200031044104510431F028F048E050E060E029
:1007300070E017C040E050E060E070E012C020E0E0
:10074000221620E0320620E0420621E0520628F080
:1007500048E150E060E070E004C040E150E060E05B
:1007600070E0D201C101042E04C0B695A7959795FB
:1007700087950A94D2F788589F4FDC012C91E0E2CC
:10078000EE2EF12C012D112DD801C701841B950BE4
:10079000A60BB70B821B9109A109B1090097A1050E
:1007A000B10561F464015301A218B308C408D50867
:1007B00031E0632E712C812C912C1EC16F968FAF6E
:1007C0006F97082E04C0220C331C441C551C0A943D
:1007D000D2F7EE2DE81B640153010E2E04C0D6940F
:1007E000C794B794A7940A94D2F7A40193016F9683
:1007F0000FAC6F9704C0220F331F441F551F0A947C
:10080000D2F76DA47EA48FA498A80E2E04C096944F
:100810008794779467940A94D2F784017301E22A4B
:10082000F32A042B152BE9A6FAA60BA71CA7320165
:1008300088249924920181012070307021960CAF98
:100840001DAF2EAF3FAF2197C601B501A4019301A3
:100850000E94B0307B018C01C601B501A401930157
:100860000E94B030C901DA0125968CAF9DAFAEAFC2
:10087000BFAF2597BC01CD0121962CAD3DAD4EAD4E
:100880005FAD21970E94D2309B01AC018701FF240C
:10089000EE24A9A4BAA4CBA4DCA4C601AA27BB2732
:1008A0005C016D01AE28BF28C02AD12AA216B3066A
:1008B000C406D50660F525966CAD7DAD8EAD9FADB9
:1008C0002597615070408040904025966CAF7DAF79
:1008D0008EAF9FAF2597A20CB31CC41CD51CA214CD
:1008E000B304C404D50498F0A216B306C406D50612
:1008F00070F4615070408040904025966CAF7DAFA1
:100900008EAF9FAF2597A20CB31CC41CD51CA21A96
:10091000B30AC40AD50AC601B501A40193010E9415
:10092000B0307B018C01C601B501A40193010E9486
:10093000B030C901DA013C014D01C401B301219677
:100940002CAD3DAD4EAD5FAD21970E94D2309B01E5
:10095000AC018701FF24EE2489A59AA5ABA5BCA50F
:10096000A070B07057016801A82AB92ACA2ADB2AE8
:10097000A216B306C406D506E0F40894610871080F
:1009800081089108A20CB31CC41CD51CA214B3048A
:10099000C404D50470F0A216B306C406D50648F404
:1009A00008946108710881089108A20CB31CC41C4A
:1009B000D51C8DA59EA5AFA5B8A96F960FAC6F9756
:1009C00004C0880F991FAA1FBB1F0A94D2F78DA7D6
:1009D0009EA7AFA7B8ABA21AB30AC40AD50A259638
:1009E000ECACFDAC0EAD1FAD2597D701992788273C
:1009F000682A792A8A2A9B2A820122273327299664
:100A00000CAF1DAF2EAF3FAF2997A20191014070EF
:100A100050702D962CAF3DAF4EAF5FAF2D97C601F6
:100A2000B50129962CAD3DAD4EAD5FAD29970E9425
:100A3000B0307B018C01C601B50129962CAD3DADCE
:100A40004EAD5FAD29970E94B030C901DA016196C1
:100A50008CAF9DAFAEAFBFAF6197BC01CD012D96FE
:100A60002CAD3DAD4EAD5FAD2D970E94D2309B01B8
:100A7000AC018701FF24EE24ADA4BEA4CFA4D8A866
:100A8000C601AA27BB2757016801A82AB92ACA2A82
:100A9000DB2AA216B306C406D50660F561966CADD6
:100AA0007DAD8EAD9FAD61976150704080409040AC
:100AB00061966CAF7DAF8EAF9FAF6197A20CB31CF8
:100AC000C41CD51CA214B304C404D50498F0A21607
:100AD000B306C406D50670F4615070408040904063
:100AE00061966CAF7DAF8EAF9FAF6197A20CB31CC8
:100AF000C41CD51CA21AB30AC40AD50AC601B50182
:100B000029962CAD3DAD4EAD5FAD29970E94B0301A
:100B10007B018C01C601B50129962CAD3DAD4EADD2
:100B20005FAD29970E94B030C901DA015C016D0107
:100B3000C601B5012D962CAD3DAD4EAD5FAD2D97E7
:100B40000E94D2309B01AC018701FF24EE248DA5C9
:100B50009EA5AFA5B8A9A070B070E82AF92A0A2B03
:100B60001B2BE216F30604071507C0F40894A1082E
:100B7000B108C108D108E20CF31C041D151DE214D4
:100B8000F3040405150550F0E216F30604071507F3
:100B900028F40894A108B108C108D1086196ECAC0A
:100BA000FDAC0EAD1FAD6197D7019927882796013F
:100BB0008501082B192B2A2B3B2B09AB1AAB2BAB2E
:100BC0003CAB62C26E147F048006910608F451C2E9
:100BD00020E0E21620E0F20621E0020720E0120702
:100BE00088F43FEFE316F1040105110531F028F018
:100BF00048E050E060E070E017C040E050E060E0A6
:100C000070E012C040E0E41640E0F40640E0040763
:100C100041E0140728F048E150E060E070E004C0D3
:100C200040E150E060E070E0D801C701042E04C04C
:100C3000B695A795979587950A94D2F788589F4FB0
:100C4000DC012C9130E2A32EB12CC12CD12CD60189
:100C5000C501841B950BA60BB70B821B9109A1093B
:100C6000B1090097A105B10589F4E614F704080558
:100C7000190508F4F2C16DA47EA48FA498A862148B
:100C800073048404950408F0E8C1F3C16E968FAF35
:100C90006E97082E04C0EE0CFF1C001F111F0A9453
:100CA000D2F76A2D681BD201C101062E04C0B69589
:100CB000A795979587950A94D2F75C016D01AE28A8
:100CC000BF28C02AD12AADA2BEA2CFA2D8A6720147
:100CD00061016E960FAC6E9704C0CC0CDD1CEE1C4F
:100CE000FF1C0A94D2F7C9A2DAA2EBA2FCA264010B
:100CF0005301062E04C0D694C794B794A7940A94BF
:100D0000D2F7D401C3016E960FAC6E9704C0880F62
:100D1000991FAA1FBB1F0A94D2F7EDA4FEA40FA52A
:100D200018A904C016950795F794E7946A95D2F729
:100D300037014801682A792A8A2A9B2A6D8E7E8E7D
:100D40008F8E98A2EDA0FEA00FA118A538018824CF
:100D50009924980187012070307065960CAF1DAF03
:100D60002EAF3FAF6597C601B501A40193010E9464
:100D7000B0307B018C01C601B501A40193010E9432
:100D8000B030C901DA011C012D01C201B101659623
:100D90002CAD3DAD4EAD5FAD65970E94D2309B014D
:100DA000AC018701FF24EE24AD8CBE8CCF8CD8A083
:100DB000C601AA27BB2757016801A82AB92ACA2A4F
:100DC000DB2AA216B306C406D50600F5089421084E
:100DD000310841085108EDA0FEA00FA118A5AE0CE6
:100DE000BF1CC01ED11EAE14BF04C006D10670F0D9
:100DF000A216B306C406D50648F4089421083108A3
:100E000041085108AE0CBF1CC01ED11EA21AB30A65
:100E1000C40AD50AC601B501A40193010E94B030ED
:100E20007B018C01C601B501A40193010E94B03081
:100E3000C901DA013C014D01C401B30165962CAD35
:100E40003DAD4EAD5FAD65970E94D2309B01AC01C8
:100E50008701FF24EE248D8D9E8DAF8DB8A1A070EB
:100E6000B07057016801A82AB92ACA2ADB2AA2163B
:100E7000B306C406D50600F5089461087108810818
:100E800091086DA17EA18FA198A5A60EB71EC81EC0
:100E9000D91EA616B706C806D90670F0A216B30664
:100EA000C406D50648F408946108710881089108C1
:100EB000A60EB71EC81ED91ED601C501821B930BF4
:100EC000A40BB50B898F9A8FAB8FBC8FD10199275B
:100ED000882764015301A82AB92ACA2ADB2AA9AAA9
:100EE000BAAACBAADCAA860175012FEF3FEF40E03A
:100EF00050E0E222F32204231523A6016627772778
:100F00006D964CAF5DAF6EAF7FAF6D97A9A0BAA0E5
:100F1000CBA0DCA06FEF7FEF80E090E0A622B722AD
:100F2000C822D92289A19AA1ABA1BCA11D01442448
:100F30005524C801B701A60195010E94D2306996D7
:100F40006CAF7DAF8EAF9FAF6997C801B701A201AB
:100F500091010E94D2303B014C016D966CAD7DAD8C
:100F60008EAD9FAD6D97A60195010E94D2307B0199
:100F70008C016D966CAD7DAD8EAD9FAD6D97A20170
:100F800091010E94D2305B016C01A8019701260DEE
:100F9000371D481D591D69966CAC7DAC8EAC9FAC5D
:100FA0006997C401AA27BB27280F391F4A1F5B1F57
:100FB0002E153F054007510748F4E12CF12C61E064
:100FC000062F112DAE0CBF1CC01ED11ECA01AA27B0
:100FD000BB27BC01CD016A0D7B1D8C1D9D1D698C3D
:100FE0007A8C8B8C9C8C661677068806990640F165
:100FF000661577058805990509F043C0D901992739
:10100000882769962CAD3DAD4EAD5FAD69974070B8
:101010005070820F931FA41FB51F2DA53EA54FA58D
:1010200058A96E960FAC6E9704C0220F331F441F51
:10103000551F0A94D2F7281739074A075B0708F5A6
:1010400009A91AA92BA93CA9015010402040304001
:1010500009AB1AAB2BAB3CAB14C06624772443011D
:1010600021E030E040E050E029AB3AAB4BAB5CAB69
:101070000BC066247724430119AA1AAA1BAA1CAA2A
:1010800003C0662477244301FE01719688E0DF01E6
:101090001D928A95E9F7A9A8BAA8CBA8DCA8A98AC5
:1010A000BA8ACB8ADC8A6D8A7E8A8F8A988E29A931
:1010B0003A894B895C89662D7E898F89988DC25AC1
:1010C000DF4FE2E10C940D31A0E0B0E0EAE6F8E099
:1010D0000C94F130DC012B01FA019C91923008F460
:1010E00039C1EB018881823008F433C1943069F44E
:1010F000843009F02FC111969C911197898198171E
:1011000009F428C1A0E7B0E025C1843009F421C169
:101110008230A9F4923009F01DC19A01AD0188E036
:10112000EA010990AE01E90109929E018150C1F7DF
:10113000E201898111969C918923818308C19230B3
:1011400009F407C112962D903C901397EB018A8108
:101150009B811496AD90BD90CD90DC901797EC805C
:10116000FD800E811F819101281B390BB90137FFCA
:1011700004C066277727621B730B603271050CF081
:1011800061C0121613066CF537014801062E04C023
:1011900096948794779467940A94D2F721E030E08C
:1011A00040E050E004C0220F331F441F551F6A95D2
:1011B000D2F721503040404050402E213F21402363
:1011C0005123211531054105510521F021E030E081
:1011D00040E050E079018A01E628F728082919291A
:1011E0003CC0232BD1F1260E371E35014601062EB9
:1011F00004C096948794779467940A94D2F721E078
:1012000030E040E050E004C0220F331F441F551F60
:101210006A95D2F721503040404050402A213B216E
:101220004C215D21211531054105510521F021E0B9
:1012300030E040E050E059016A01A628B728C828EC
:10124000D9280BC0821593052CF01C01AA24BB24BD
:10125000650103C0EE24FF24870111969C91D20101
:1012600011968C91981709F445C0992339F0A8017B
:1012700097012A193B094C095D0906C0A601950191
:101280002E193F09400B510B57FD08C011823382C4
:10129000228224833583468357831DC081E0818366
:1012A0003382228288279927DC01821B930BA40BAF
:1012B000B50B84839583A683B7830DC0220F331F9C
:1012C000441F551F2483358346835783828193812E
:1012D0000197938382832481358146815781DA0186
:1012E000C9010197A109B1098F5F9F4FAF4FBF435C
:1012F00028F30BC0918333822282EA0CFB1C0C1D65
:101300001D1DE482F5820683178383E08083248198
:1013100035814681578157FF1AC0C901AA2797FD19
:10132000A095BA2F81709070A070B07056954795B7
:1013300037952795822B932BA42BB52B84839583EC
:10134000A683B78382819381019693838283DF0191
:1013500001C0D201CD01CDB7DEB7E2E10C940D3171
:10136000A0E2B0E0E6EBF9E00C94FD3069837A830B
:101370008B839C832D833E834F835887E9E0EE2E39
:10138000F12CEC0EFD1ECE010196B7010E946D0DF1
:101390008E010F5E1F4FCE010596B8010E946D0DA4
:1013A0008A8991E089278A8BC701B801AE01475E1F
:1013B0005F4F0E9464080E94980CA096E6E00C948F
:1013C0001931A0E2B0E0E7EEF9E00C94FD3069835A
:1013D0007A838B839C832D833E834F835887F9E0E8
:1013E000EF2EF12CEC0EFD1ECE010196B7010E94EE
:1013F0006D0D8E010F5E1F4FCE010596B8010E9444
:101400006D0DC701B801AE01475E5F4F0E946408D1
:101410000E94980CA096E6E00C941931A0E2B0E08E
:10142000E4E1FAE00C94F13069837A838B839C8346
:101430002D833E834F835887CE010196BE01675F9F
:101440007F4F0E946D0DCE010596BE016F5E7F4FEE
:101450000E946D0D9985923088F089898230C8F09C
:10146000943019F4823051F404C0843029F492305D
:1014700081F480E790E0C6C0923049F420E09A857C
:101480008A89981321E02A87CE010996BBC0823051
:1014900049F420E09A858A89981321E02A8BCE01AD
:1014A0004196B0C02D843E844F8458886D887E88D4
:1014B0008F88988CEE24FF248701AA24BB24650121
:1014C00040E050E060E070E0E0E0F0E0C1018170F9
:1014D0009070892BE9F0E60CF71C081D191D9A0184
:1014E000AB012A0D3B1D4C1D5D1D80E090E0A0E08E
:1014F000B0E0E614F7040805190520F481E090E057
:10150000A0E0B0E0BA01A901480F591F6A1F7B1F74
:10151000AA0CBB1CCC1CDD1C97FE08C081E090E02F
:10152000A0E0B0E0A82AB92ACA2ADB2A3196E03224
:10153000F10549F0660C771C881C991C5694479459
:1015400037942794C3CFFA85EA892B893C898B8508
:101550009C85280F391F2E5F3F4F17C0CA0181702D
:101560009070892B61F016950795F794E79480E0C9
:1015700090E0A0E0B0E8E82AF92A0A2B1B2B769528
:101580006795579547952F5F3F4F77FDE7CF0CC085
:10159000440F551F661F771F17FD4160EE0CFF1C9F
:1015A000001F111F21503040403090E0590790E05B
:1015B000690790E4790760F32B8F3C8FDB01CA0148
:1015C0008F779070A070B07080349105A105B1053F
:1015D00061F447FD0AC0E114F1040105110529F089
:1015E000405C5F4F6F4F7F4F40781A8EFE1711F0AF
:1015F00081E08A8F4D8F5E8F6F8F78A383E0898F14
:10160000CE0149960E94980CA096E2E10C940D310F
:10161000A8E1B0E0EEE0FBE00C94F93069837A8356
:101620008B839C832D833E834F835887B9E0EB2EB9
:10163000F12CEC0EFD1ECE010196B7010E946D0D3E
:101640008E010F5E1F4FCE010596B8010E946D0DF1
:101650002985223008F47EC03989323010F4B8016F
:101660007CC08A859A8989278A87243011F02230A4
:1016700031F4231709F06EC060E770E06EC03430BB
:1016800039F41D861E861F86188A1C861B8604C098
:10169000323021F484E08987B7015FC02B853C8517
:1016A0008B899C89281B390B3C872B87ED84FE8412
:1016B0000F851889AD88BE88CF88D88CEA14FB04C2
:1016C0000C051D0540F4EE0CFF1C001F111F2150DE
:1016D00030403C872B8720E030E040E050E080E065
:1016E00090E0A0E0B0E460E070E0EA14FB040C05D8
:1016F0001D0540F0282B392B4A2B5B2BEA18FB08E1
:101700000C091D09B695A79597958795EE0CFF1CBA
:10171000001F111F6F5F7F4F6F31710531F7DA01C5
:10172000C9018F779070A070B07080349105A105C9
:10173000B10561F427FD0AC0E114F10401051105AA
:1017400029F0205C3F4F4F4F5F4F20782D873E8719
:101750004F87588BBE01675F7F4FCB010E94980C6B
:101760006896EAE00C941531A8E1B0E0EAEBFBE002
:101770000C94FD3069837A838B839C832D833E8315
:101780004F83588789E0E82EF12CEC0EFD1ECE0128
:101790000196B7010E946D0D8E010F5E1F4FCE01A5
:1017A0000596B8010E946D0D8985823040F08989C7
:1017B000823028F0C701B8010E94E50D01C08FEF0B
:1017C0006896E6E00C941931A8E1B0E0EAEEFBE09F
:1017D0000C94FD3069837A838B839C832D833E83B5
:1017E0004F83588789E0E82EF12CEC0EFD1ECE01C8
:1017F0000196B7010E946D0D8E010F5E1F4FCE0145
:101800000596B8010E946D0D8985823040F0898966
:10181000823028F0C701B8010E94E50D01C08FEFAA
:101820006896E6E00C941931A8E1B0E0EAE1FCE04A
:101830000C94FD3069837A838B839C832D833E8354
:101840004F83588789E0E82EF12CEC0EFD1ECE0167
:101850000196B7010E946D0D8E010F5E1F4FCE01E4
:101860000596B8010E946D0D8985823040F0898906
:10187000823028F0C701B8010E94E50D01C081E067
:101880006896E6E00C941931ACE0B0E0EAE4FCE0E4
:101890000C94013169837A838B839C83CE010196FA
:1018A000BE016B5F7F4F0E946D0D8D81823061F1B3
:1018B000823050F1843021F48E81882351F12EC082
:1018C0002F81388537FD20C06E812F3131051CF006
:1018D0006623F9F023C08EE190E0821B930B2985EB
:1018E0003A854B855C8504C0569547953795279575
:1018F0008A95D2F76623B1F05095409530952195A1
:101900003F4F4F4F5F4F0EC020E030E040E050E0CF
:1019100009C02FEF3FEF4FEF5FE704C020E030E05A
:1019200040E050E8B901CA012C96E2E00C941D3168
:10193000DF92EF92FF920F931F93FC01E480F580FA
:1019400006811781D1808081823048F480E090E068
:10195000A0E1B0E0E82AF92A0A2B1B2BA5C08430AD
:1019600009F49FC0823021F4EE24FF24870105C0D2
:10197000E114F1040105110519F4E0E0F0E096C06E
:10198000628173819FEF623879070CF05BC022E8B7
:101990003FEF261B370B2A3131052CF020E030E0D9
:1019A00040E050E02AC0B801A701022E04C076959D
:1019B0006795579547950A94D2F781E090E0A0E0AB
:1019C000B0E004C0880F991FAA1FBB1F2A95D2F749
:1019D0000197A109B1098E219F21A023B12300976E
:1019E000A105B10521F081E090E0A0E0B0E09A010E
:1019F000AB01282B392B4A2B5B2BDA01C9018F77DE
:101A00009070A070B07080349105A105B10539F4D3
:101A100027FF09C0205C3F4F4F4F5F4F04C0215C40
:101A20003F4F4F4F5F4FE0E0F0E02030A0E03A073B
:101A3000A0E04A07A0E45A0710F0E1E0F0E07901E5
:101A40008A0127C06038710564F5FB01E158FF4F3A
:101A5000D801C7018F779070A070B0708034910565
:101A6000A105B10539F4E7FE0DC080E490E0A0E0E7
:101A7000B0E004C08FE390E0A0E0B0E0E80EF91E13
:101A80000A1F1B1F17FF05C016950795F794E794CB
:101A9000319687E016950795F794E7948A95D1F7E4
:101AA00005C0EE24FF248701EFEFF0E06E2F67956D
:101AB00066276795902F9F77D794DD24D7948E2F34
:101AC0008695492F462B582F5D29B701CA011F91D2
:101AD0000F91FF90EF90DF900895FC01DB014081B2
:101AE00051812281622F6F7770E0221F2227221FEF
:101AF0009381892F880F822B282F30E0991F9927F7
:101B0000991F11969C93119721153105A9F541153F
:101B100051056105710511F482E037C082E89FEF3D
:101B200013969C938E9312979A01AB0167E0220F54
:101B3000331F441F551F6A95D1F783E08C930DC066
:101B4000220F331F441F551F12968D919C9113979E
:101B5000019713969C938E931297203080E038075C
:101B600080E0480780E4580758F314962D933D937E
:101B70004D935C93179708952F3F310579F44115E4
:101B800051056105710519F484E08C93089564FF93
:101B900003C081E08C9312C01C9210C02F573040BC
:101BA00013963C932E93129783E08C9387E0440F17
:101BB000551F661F771F8A95D1F7706414964D9351
:101BC0005D936D937C93179708951F93DC01FB0140
:101BD0009C91923008F447C08081823008F443C061
:101BE000943051F411961C91843099F58181682FBD
:101BF00070E0611B71093FC0843021F0923031F4F4
:101C00008230B9F18181882389F12DC011961C9110
:101C100011978230F1F081811817D9F412962D9125
:101C20003C911397828193818217930794F0281730
:101C30003907BCF014968D919D910D90BC91A02D0B
:101C40002481358146815781281739074A075B0768
:101C500018F4112341F00AC082179307A407B507AF
:101C600040F4112319F061E070E005C06FEF7FEFE1
:101C700002C060E070E0CB011F910895DF93CF9325
:101C800000D000D000D0CDB7DEB78B836C838B81C2
:101C90008695869586958A838B81877089838A81CC
:101CA000282F30E03E832D838D819E8181309105E8
:101CB00009F443C02D813E81223031052CF48D8101
:101CC0009E81009771F0BCC02D813E81223031058C
:101CD00009F45FC08D819E818330910509F485C030
:101CE000AFC08C818130A1F4ABE3B0E0EBE3F0E076
:101CF0008081482F8981282F30E081E090E0022EFA
:101D000002C0880F991F0A94E2F7842B8C9398C025
:101D1000ABE3B0E0EBE3F0E08081482F8981282F2E
:101D200030E081E090E0022E02C0880F991F0A94F3
:101D3000E2F7809584238C9383C08C818130A1F459
:101D4000A8E3B0E0E8E3F0E08081482F8981282F04
:101D500030E081E090E0022E02C0880F991F0A94C3
:101D6000E2F7842B8C936CC0A8E3B0E0E8E3F0E0EA
:101D70008081482F8981282F30E081E090E0022E79
:101D800002C0880F991F0A94E2F7809584238C93F0
:101D900057C08C818130A1F4A5E3B0E0E5E3F0E029
:101DA0008081482F8981282F30E081E090E0022E49
:101DB00002C0880F991F0A94E2F7842B8C9340C0CD
:101DC000A5E3B0E0E5E3F0E08081482F8981282F8A
:101DD00030E081E090E0022E02C0880F991F0A9443
:101DE000E2F7809584238C932BC08C818130A1F401
:101DF000A2E3B0E0E2E3F0E08081482F8981282F60
:101E000030E081E090E0022E02C0880F991F0A9412
:101E1000E2F7842B8C9314C0A2E3B0E0E2E3F0E09D
:101E20008081482F8981282F30E081E090E0022EC8
:101E300002C0880F991F0A94E2F7809584238C933F
:101E400026960FB6F894DEBF0FBECDBFCF91DF91BF
:101E50000895DF93CF9300D000D00F92CDB7DEB7B7
:101E60008B838B818695869586958A838B818770F7
:101E700089838A81282F30E03D832C838C819D814A
:101E80008130910549F12C813D81223031052CF4BE
:101E90008C819D81009761F05AC02C813D81223058
:101EA000310571F18C819D8183309105E9F14FC03D
:101EB000ABE3B0E0EBE3F0E08081482F8981282F8D
:101EC00030E081E090E0022E02C0880F991F0A9452
:101ED000E2F784278C933BC0A8E3B0E0E8E3F0E0AE
:101EE0008081482F8981282F30E081E090E0022E08
:101EF00002C0880F991F0A94E2F784278C9327C0A9
:101F0000A5E3B0E0E5E3F0E08081482F8981282F48
:101F100030E081E090E0022E02C0880F991F0A9401
:101F2000E2F784278C9313C0A2E3B0E0E2E3F0E091
:101F30008081482F8981282F30E081E090E0022EB7
:101F400002C0880F991F0A94E2F784278C930F90A0
:101F50000F900F900F900F90CF91DF910895DF9326
:101F6000CF9300D000D000D0CDB7DEB78B838B816C
:101F70008695869586958A838B81877089838A81E9
:101F8000282F30E03E832D834D815E814130510505
:101F900049F18D819E818230910534F42D813E81FD
:101FA0002115310561F057C04D815E8142305105E8
:101FB00061F18D819E8183309105D1F14CC0E9E3BF
:101FC000F0E08081282F30E08981882F90E0A901FE
:101FD00002C0559547958A95E2F7CA01582F51706E
:101FE0005C833AC0E6E3F0E08081282F30E089810D
:101FF000882F90E0A90102C0559547958A95E2F790
:10200000CA01582F51705C8327C0E3E3F0E0808160
:10201000282F30E08981882F90E0A90102C05595D2
:1020200047958A95E2F7CA01582F51705C8314C016
:10203000E0E3F0E08081282F30E08981882F90E074
:10204000A90102C0559547958A95E2F7CA01582F14
:1020500051705C8301C01C828C8126960FB6F89467
:10206000DEBF0FBECDBFCF91DF9108951F93DF93E9
:10207000CF93CDB7DEB72A970FB6F894DEBF0FBE69
:10208000CDBF8FEF8B8383E18C8382E18D8381E1F0
:102090008E8380E18F8319820FC08981282F30E0E1
:1020A000CE010496FC01E20FF31F808161E00E94E3
:1020B0003E0E89818F5F89838981843070F3198214
:1020C0009AC08981282F30E0CE010496FC01E20FEE
:1020D000F31F808160E00E943E0E84E10E94AF0FFA
:1020E000182F85E10E94AF0F882F90E0880F991F6D
:1020F000182B86E10E94AF0F882F90E0880F991F60
:10210000880F991F182B87E10E94AF0F882F90E04E
:10211000880F991F880F991F880F991F812B8A8319
:102120008A81282F30E03A87298789859A858B30E4
:10213000910599F129853A852C30310534F489854A
:102140009A8587309105C9F147C029853A852D3098
:102150003105A1F089859A858E309105E9F589814F
:10216000882F90E0880F991F880F991FFC01E8586D
:10217000FE4F80818B839B81988743C08981882F04
:1021800090E0880F991F880F991FFC01E758FE4FB8
:1021900080818B832B81288734C08981882F90E0B0
:1021A000880F991F0196880F991FFC01E858FE4F70
:1021B00080818B833B81388724C08981882F90E080
:1021C000880F991F880F991FFC01E558FE4F8081E9
:1021D0008B838B81888715C08981282F30E0CE01C1
:1021E0000496FC01E20FF31F808161E00E943E0E25
:1021F00089818F5F89838981843008F462CF9B81D4
:10220000988788852A960FB6F894DEBF0FBECDBF9B
:10221000CF91DF911F9108950F931F93DF93CF9379
:10222000CDB7DEB7CC54D0400FB6F894DEBF0FBEAA
:10223000CDBFFE01E75BFF4F80E090E0A0EFB1E48F
:1022400080839183A283B3838E010B5B1F4FFE01BA
:10225000E75BFF4F608171818281938120E030E0F4
:102260004AEF54E40E940E0ADC01CB01F80180839E
:102270009183A283B383FE01EB5BFF4F6081718189
:102280008281938120E030E040E85FE30E94140CFB
:10229000882344F4FE01ED5BFF4F81E090E09183E1
:1022A000808364C0FE01EB5BFF4F6081718182819E
:1022B000938120E03FEF4FE757E40E94B40B1816DC
:1022C0000CF043C0FE01E75BFF4F608171818281AA
:1022D000938120E030E040E251E40E940E0ADC01EC
:1022E000CB018E010D5B1F4FBC01CD010E94C301CC
:1022F000DC01CB01F801918380831FC0FE01EF5BFD
:10230000FF4F88EC90E091838083FE01EF5BFF4FED
:10231000808191810197F1F7FE01EF5BFF4F91837F
:102320008083DE01AD5BBF4FFE01ED5BFF4F80811F
:102330009181019711969C938E93FE01ED5BFF4F67
:10234000808191810097D1F624C08E010D5B1F4FD3
:10235000FE01EB5BFF4F60817181828193810E945E
:10236000C301DC01CB01F80191838083FE01ED5BA9
:10237000FF4F80819181FE01FF9691838083FE0152
:10238000FF96808191810197F1F7FE01FF9691837D
:10239000808388E361E00E94D31380E090E0ACE1A9
:1023A000B2E48BAF9CAFADAFBEAF6BAD7CAD8DADCE
:1023B0009EAD2BEA3AEA4AE250E40E940E0ADC01A2
:1023C000CB018FAB98AFA9AFBAAF6FA978AD89AD8C
:1023D0009AAD20E030E040E85FE30E94140C8823CF
:1023E0001CF481E08EAB91C06FA978AD89AD9AAD38
:1023F00020E030E04FE753E40E94B40B18160CF0D5
:102400007BC06BAD7CAD8DAD9EAD20E030E04AE78A
:1024100054E40E94080BDC01CB018AAB9BABACAB54
:10242000BDAB6AA97BA98CA99DA920E030E04AEF49
:1024300054E40E940E0ADC01CB018EA79FA7A8AB33
:10244000B9AB6EA57FA588A999A920E030E040E846
:102450005FE30E94140C88232CF481E090E09DA798
:102460008CA73FC06EA57FA588A999A920E03FEF62
:102470004FE757E40E94B40B18164CF56AA97BA9E4
:102480008CA99DA920E030E040E251E40E940E0AB0
:10249000DC01CB01BC01CD010E94C301DC01CB01F9
:1024A0009DA78CA70FC088EC90E09BA78AA78AA560
:1024B0009BA50197F1F79BA78AA78CA59DA50197DE
:1024C0009DA78CA78CA59DA5009769F724C06EA534
:1024D0007FA588A999A90E94C301DC01CB019DA712
:1024E0008CA78CA59DA599A788A788A599A50197D4
:1024F000F1F799A788A70FC06FA978AD89AD9AADFC
:102500000E94C301DC01CB018EAB8EA98FA38FA1EA
:102510008A95F1F78FA38FE061E00E94D31380E0EA
:1025200090E0ACE1B2E48BA39CA3ADA3BEA36BA1EE
:102530007CA18DA19EA12BEA3AEA4AE250E40E94D6
:102540000E0ADC01CB018F8F98A3A9A3BAA36F8DCC
:1025500078A189A19AA120E030E040E85FE30E94E1
:10256000140C88231CF481E08E8F91C06F8D78A1AC
:1025700089A19AA120E030E04FE753E40E94B40B18
:1025800018160CF07BC06BA17CA18DA19EA120E050
:1025900030E04AE754E40E94080BDC01CB018A8F4B
:1025A0009B8FAC8FBD8F6A8D7B8D8C8D9D8D20E038
:1025B00030E04AEF54E40E940E0ADC01CB018E8B1E
:1025C0009F8BA88FB98F6E897F89888D998D20E028
:1025D00030E040E85FE30E94140C88232CF481E093
:1025E00090E09D8B8C8B3FC06E897F89888D998D03
:1025F00020E03FEF4FE757E40E94B40B18164CF56C
:102600006A8D7B8D8C8D9D8D20E030E040E251E421
:102610000E940E0ADC01CB01BC01CD010E94C30166
:10262000DC01CB019D8B8C8B0FC088EC90E09B8BE9
:102630008A8B8A899B890197F1F79B8B8A8B8C897E
:102640009D8901979D8B8C8B8C899D89009769F75B
:1026500024C06E897F89888D998D0E94C301DC0119
:10266000CB019D8B8C8B8C899D89998B888B8889DC
:1026700099890197F1F7998B888B0FC06F8D78A19D
:1026800089A19AA10E94C301DC01CB018E8F8E8D9E
:102690008F878F858A95F1F78F8781E061E00E94AF
:1026A000D3138AE097EDA3ECBFE38B879C87AD87BC
:1026B000BE876B857C858D859E8520E030E04AEF66
:1026C00054E40E940E0ADC01CB018F839887A9870E
:1026D000BA876F81788589859A8520E030E040E867
:1026E0005FE30E94140C88232CF481E090E09E8329
:1026F0008D833FC06F81788589859A8520E03FEF83
:102700004FE757E40E94B40B18164CF56B857C8597
:102710008D859E8520E030E040E251E40E940E0A63
:10272000DC01CB01BC01CD010E94C301DC01CB0166
:102730009E838D830FC088EC90E09C838B838B817C
:102740009C810197F1F79C838B838D819E810197FA
:102750009E838D838D819E81009769F714C06F8160
:10276000788589859A850E94C301DC01CB019E830F
:102770008D838D819E819A83898389819A81019736
:10278000F1F79A83898386E061E00E94D313C45BEA
:10279000DF4F0FB6F894DEBF0FBECDBFCF91DF91F4
:1027A0001F910F9108950F931F93DF93CF93CDB790
:1027B000DEB7C356D0400FB6F894DEBF0FBECDBF14
:1027C000FE01EF59FF4F8083FE01EE59FF4F6083FA
:1027D000FE01EE59FF4F8081813009F078C280E020
:1027E00060E00E943E0E81E060E00E943E0E82E0CA
:1027F00061E00E943E0EFE01EF59FF4F8081982F4D
:10280000991F9927991F8AE0692F0E943E0EFE01A9
:10281000EF59FF4F80818295869586958370982F1A
:10282000917089E0692F0E943E0EFE01EF59FF4F23
:102830008081829586958770982F917088E0692FA6
:102840000E943E0EFE01EF59FF4F808182958F70EE
:10285000982F917087E0692F0E943E0EFE01EF597C
:10286000FF4F8081869586958695982F917086E09A
:10287000692F0E943E0EFE01EF59FF4F8081869521
:102880008695982F917085E0692F0E943E0EFE017B
:10289000EF59FF4F80818695982F917084E0692FC2
:1028A0000E943E0EFE01EF59FF4F8081982F9170DC
:1028B00083E0692F0E943E0EFE01E35AFF4F80E045
:1028C00090E0A8E4B2E480839183A283B3838E0175
:1028D000075A1F4FFE01E35AFF4F608171818281C9
:1028E00093812BEA3AEA4AE250E40E940E0ADC01A4
:1028F000CB01F80180839183A283B383FE01E75A61
:10290000FF4F608171818281938120E030E040E857
:102910005FE30E94140C882334F4FE01E85AFF4F51
:1029200081E08083E0C0FE01E75AFF4F6081718142
:102930008281938120E030E04FE753E40E94B40BA2
:1029400018160CF0C0C0FE01E35AFF4F6081718180
:102950008281938120E030E04AE754E40E94080B32
:10296000DC01CB01FE01EC5AFF4F80839183A283EF
:10297000B3838E01005B1F4FFE01EC5AFF4F608155
:1029800071818281938120E030E04AEF54E40E941B
:102990000E0ADC01CB01F80180839183A283B3830B
:1029A000FE01E05BFF4F608171818281938120E0B5
:1029B00030E040E85FE30E94140C882344F4FE01F9
:1029C000E25BFF4F81E090E09183808364C0FE0171
:1029D000E05BFF4F608171818281938120E03FEF56
:1029E0004FE757E40E94B40B18160CF043C0FE01E9
:1029F000EC5AFF4F608171818281938120E030E049
:102A000040E251E40E940E0ADC01CB018E01025B20
:102A10001F4FBC01CD010E94C301DC01CB01F801B5
:102A2000918380831FC0FE01E45BFF4F88EC90E040
:102A300091838083FE01E45BFF4F80819181019748
:102A4000F1F7FE01E45BFF4F91838083DE01A25B1F
:102A5000BF4FFE01E25BFF4F80819181019711968C
:102A60009C938E93FE01E25BFF4F808191810097E2
:102A7000D1F64BC08E01025B1F4FFE01E05BFF4FA2
:102A800060817181828193810E94C301DC01CB014D
:102A9000F80191838083DE01A65BBF4FFE01E25BFC
:102AA000FF4F8081918111969C938E93FE01E65B8E
:102AB000FF4F808191810197F1F7FE01E65BFF4FA7
:102AC0009183808322C08E01085A1F4FFE01E75A6E
:102AD000FF4F60817181828193810E94C301DC017B
:102AE000CB01F8018083DE01A75BBF4FFE01E85AEE
:102AF000FF4F80818C93FE01E75BFF4F80818A95B9
:102B0000F1F7FE01E75BFF4F808382E060E00E9407
:102B10003E0EFE01EB5BFF4F80E090E0A8E4B2E4E4
:102B200080839183A283B3838E010F5B1F4FFE01CD
:102B3000EB5BFF4F60817181828193812BEA3AEADE
:102B40004AE250E40E940E0ADC01CB01F8018083C6
:102B50009183A283B383FE01EF5BFF4F608171819C
:102B60008281938120E030E040E85FE30E94140C12
:102B7000882334F481E0FE01E05CFF4F80839DC038
:102B8000FE01EF5BFF4F608171818281938120E0C4
:102B900030E04FE753E40E94B40B18160CF07EC0EF
:102BA000FE01EB5BFF4F608171818281938120E0A8
:102BB00030E04AE754E40E94080BDC01CB018CAF03
:102BC0009DAFAEAFBFAF6CAD7DAD8EAD9FAD20E024
:102BD00030E04AEF54E40E940E0ADC01CB0188AFDA
:102BE00099AFAAAFBBAF68AD79AD8AAD9BAD20E020
:102BF00030E040E85FE30E94140C88232CF481E06D
:102C000090E09FAB8EAB3FC068AD79AD8AAD9BAD18
:102C100020E03FEF4FE757E40E94B40B18164CF545
:102C20006CAD7DAD8EAD9FAD20E030E040E251E473
:102C30000E940E0ADC01CB01BC01CD010E94C30140
:102C4000DC01CB019FAB8EAB0FC088EC90E09DAB5D
:102C50008CAB8CA99DA90197F1F79DAB8CAB8EA98C
:102C60009FA901979FAB8EAB8EA99FA9009769F78B
:102C700028C268AD79AD8AAD9BAD0E94C301DC016D
:102C8000CB019FAB8EAB8EA99FA99BAB8AAB8AA9C8
:102C90009BA90197F1F79BAB8AAB13C2FE01EF5BD7
:102CA000FF4F60817181828193810E94C301DC01A9
:102CB000CB01FE01E05CFF4F8083FE01E05CFF4F33
:102CC000808189AB89A98A95F1F789ABFAC1FE01A8
:102CD000EE59FF4F8081823009F0EEC180E061E063
:102CE0000E943E0E81E060E00E943E0E82E061E0C4
:102CF0000E943E0EFE01EF59FF4F8081982F991FD1
:102D00009927991F8AE0692F0E943E0EFE01EF5914
:102D1000FF4F80818295869586958370982F91705C
:102D200089E0692F0E943E0EFE01EF59FF4F80811E
:102D3000829586958770982F917088E0692F0E9400
:102D40003E0EFE01EF59FF4F808182958F70982FC4
:102D5000917087E0692F0E943E0EFE01EF59FF4FF0
:102D60008081869586958695982F917086E0692F4B
:102D70000E943E0EFE01EF59FF4F80818695869599
:102D8000982F917085E0692F0E943E0EFE01EF5949
:102D9000FF4F80818695982F917084E0692F0E9463
:102DA0003E0EFE01EF59FF4F8081982F917083E016
:102DB000692F0E943E0E80E090E0A8E4B2E48DA767
:102DC0009EA7AFA7B8AB6DA57EA58FA598A92BEA46
:102DD0003AEA4AE250E40E940E0ADC01CB0189A7DC
:102DE0009AA7ABA7BCA769A57AA58BA59CA520E04F
:102DF00030E040E85FE30E94140C88231CF481E07B
:102E000088A791C069A57AA58BA59CA520E030E094
:102E10004FE753E40E94B40B18160CF07BC06DA56D
:102E20007EA58FA598A920E030E04AE754E40E94EF
:102E3000080BDC01CB018CA39DA3AEA3BFA36CA1A7
:102E40007DA18EA19FA120E030E04AEF54E40E94D2
:102E50000E0ADC01CB0188A399A3AAA3BBA368A196
:102E600079A18AA19BA120E030E040E85FE30E94C5
:102E7000140C88232CF481E090E09F8F8E8F3FC04C
:102E800068A179A18AA19BA120E03FEF4FE757E419
:102E90000E94B40B18164CF56CA17DA18EA19FA1C8
:102EA00020E030E040E251E40E940E0ADC01CB0158
:102EB000BC01CD010E94C301DC01CB019F8F8E8F2D
:102EC0000FC088EC90E09D8F8C8F8C8D9D8D01972D
:102ED000F1F79D8F8C8F8E8D9F8D01979F8F8E8F99
:102EE0008E8D9F8D009769F724C068A179A18AA172
:102EF0009BA10E94C301DC01CB019F8F8E8F8E8D21
:102F00009F8D9B8F8A8F8A8D9B8D0197F1F79B8F69
:102F10008A8F0FC069A57AA58BA59CA50E94C301C5
:102F2000DC01CB0188A788A5898F898D8A95F1F767
:102F3000898F82E060E00E943E0E80E090E0A8E48D
:102F4000B2E48D8B9E8BAF8BB88F6D897E898F8914
:102F5000988D2BEA3AEA4AE250E40E940E0ADC011C
:102F6000CB01898B9A8BAB8BBC8B69897A898B89D6
:102F70009C8920E030E040E85FE30E94140C882345
:102F80001CF481E0888B91C069897A898B899C893E
:102F900020E030E04FE753E40E94B40B18160CF029
:102FA0007BC06D897E898F89988D20E030E04AE76B
:102FB00054E40E94080BDC01CB018C879D87AE870F
:102FC000BF876C857D858E859F8520E030E04AEF48
:102FD00054E40E940E0ADC01CB0188879987AA87F6
:102FE000BB87688579858A859B8520E030E040E84D
:102FF0005FE30E94140C88232CF481E090E09F830F
:103000008E833FC0688579858A859B8520E03FEF68
:103010004FE757E40E94B40B18164CF56C857D857C
:103020008E859F8520E030E040E251E40E940E0A48
:10303000DC01CB01BC01CD010E94C301DC01CB014D
:103040009F838E830FC088EC90E09D838C838C815E
:103050009D810197F1F79D838C838E819F810197DC
:103060009F838E838E819F81009769F72AC0688530
:1030700079858A859B850E94C301DC01CB019F83F2
:103080008E838E819F819B838A838A819B81019716
:10309000F1F79B838A8315C069897A898B899C891A
:1030A0000E94C301DC01CB01888B888989838981D7
:1030B0008A95F1F7898305C0F1E0A496FFAFA49744
:1030C00003C0A4961FAEA497A4968FADA497CD5924
:1030D000DF4F0FB6F894DEBF0FBECDBFCF91DF91AB
:1030E0001F910F910895DF93CF9300D0CDB7DEB736
:1030F0009A8389830BC0E981FA81808162E00E9412
:10310000D31389819A8101969A838983E981FA810F
:103110008081882381F780E00F900F90CF91DF911D
:103120000895DF93CF9300D000D00F92CDB7DEB7D4
:1031300089836A838981282F30E03D832C838C81A9
:103140009D81009731F02C813D812130310539F08E
:103150000CC08A81805861E00E94D31309C08A8123
:10316000805461E00E94D31303C031E03B8301C06F
:103170001B828B810F900F900F900F900F90CF912B
:10318000DF910895DF93CF9300D000D0CDB7DEB7A5
:103190008A837C836B838A81883008F58A81882FB3
:1031A00090E00896880F991F880F991F880F991F24
:1031B00061E00E94D31319820FC08981282F30E06B
:1031C0008B819C81FC01E20FF31F808162E00E94F1
:1031D000D31389818F5F89838981883070F380E080
:1031E0000F900F900F900F90CF91DF910895DF9384
:1031F000CF930F92CDB7DEB78983898162E00E94B9
:10320000D31380E00F90CF91DF910895DF93CF9398
:10321000CDB7DEB7EAE3F0E08FEF8083EBE3F0E0D9
:103220001082E7E3F0E08FEF8083E8E3F0E01082C4
:10323000E4E3F0E08FE08083E5E3F0E080EF80837B
:10324000E1E3F0E08FEF8083E2E3F0E01082CF91E2
:10325000DF910895DF93CF9300D000D000D0CDB799
:10326000DEB78B836C838B818695869586958A8362
:103270008B81877089838A81282F30E03E832D835C
:103280008D819E818130910509F443C02D813E815D
:10329000223031052CF48D819E81009771F0BCC0E5
:1032A0002D813E812230310509F45FC08D819E81E0
:1032B0008330910509F485C0AFC08C818823A1F4C7
:1032C000AAE3B0E0EAE3F0E08081482F8981282F6B
:1032D00030E081E090E0022E02C0880F991F0A942E
:1032E000E2F7842B8C9398C0AAE3B0E0EAE3F0E025
:1032F0008081482F8981282F30E081E090E0022EE4
:1033000002C0880F991F0A94E2F7809584238C935A
:1033100083C08C818823A1F4A7E3B0E0E7E3F0E069
:103320008081482F8981282F30E081E090E0022EB3
:1033300002C0880F991F0A94E2F7842B8C936CC00B
:10334000A7E3B0E0E7E3F0E08081482F8981282FF0
:1033500030E081E090E0022E02C0880F991F0A94AD
:10336000E2F7809584238C9357C08C818823A1F445
:10337000A4E3B0E0E4E3F0E08081482F8981282FC6
:1033800030E081E090E0022E02C0880F991F0A947D
:10339000E2F7842B8C9340C0A4E3B0E0E4E3F0E0D8
:1033A0008081482F8981282F30E081E090E0022E33
:1033B00002C0880F991F0A94E2F7809584238C93AA
:1033C0002BC08C818823A1F4A1E3B0E0E1E3F0E01D
:1033D0008081482F8981282F30E081E090E0022E03
:1033E00002C0880F991F0A94E2F7842B8C9314C0B3
:1033F000A1E3B0E0E1E3F0E08081482F8981282F4C
:1034000030E081E090E0022E02C0880F991F0A94FC
:10341000E2F7809584238C9326960FB6F894DEBF4E
:103420000FBECDBFCF91DF910895DF93CF9300D032
:1034300000D000D0CDB7DEB78B836C838B818695AF
:10344000869586958A838B81877089838A81282FC8
:1034500030E03E832D838D819E818130910509F47A
:10346000BCC02D813E81223031052CF48D819E819E
:10347000009771F0A0C22D813E812230310509F400
:1034800051C18D819E818330910509F4F0C193C2B1
:103490008C81882331F5AAE3B0E0EAE3F0E0808193
:1034A000482F8981282F30E081E090E002C0880F0A
:1034B000991F2A95E2F7842B8C93ABE3B0E0EBE302
:1034C000F0E08081482F8981282F30E081E090E072
:1034D000022E02C0880F991F0A94E2F7842B8C9366
:1034E0006AC28C81823041F5AAE3B0E0EAE3F0E001
:1034F0008081482F8981282F30E081E090E002C050
:10350000880F991F2A95E2F7809584238C93ABE36B
:10351000B0E0EBE3F0E08081482F8981282F30E094
:1035200081E090E0022E02C0880F991F0A94E2F712
:10353000809584238C933FC28C81833039F5AAE334
:10354000B0E0EAE3F0E08081482F8981282F30E065
:1035500081E090E002C0880F991F2A95E2F78095DC
:1035600084238C93ABE3B0E0EBE3F0E08081482F61
:103570008981282F30E081E090E0022E02C0880F80
:10358000991F0A94E2F7842B8C9315C2AAE3B0E04A
:10359000EAE3F0E08081482F8981282F30E081E044
:1035A00090E002C0880F991F2A95E2F7842B8C9334
:1035B000ABE3B0E0EBE3F0E08081482F8981282F76
:1035C00030E081E090E0022E02C0880F991F0A943B
:1035D000E2F7809584238C93EEC18C81882331F5AA
:1035E000A7E3B0E0E7E3F0E08081482F8981282F4E
:1035F00030E081E090E002C0880F991F2A95E2F741
:10360000842B8C93A8E3B0E0E8E3F0E08081482FBE
:103610008981282F30E081E090E0022E02C0880FDF
:10362000991F0A94E2F7842B8C93C5C18C81823058
:1036300041F5A7E3B0E0E7E3F0E08081482F89811E
:10364000282F30E081E090E002C0880F991F2A9572
:10365000E2F7809584238C93A8E3B0E0E8E3F0E000
:103660008081482F8981282F30E081E090E0022E70
:1036700002C0880F991F0A94E2F7809584238C93E7
:103680009AC18C81833039F5A7E3B0E0E7E3F0E03D
:103690008081482F8981282F30E081E090E002C0AE
:1036A000880F991F2A95E2F7809584238C93A8E3CD
:1036B000B0E0E8E3F0E08081482F8981282F30E0F6
:1036C00081E090E0022E02C0880F991F0A94E2F771
:1036D000842B8C9370C1A7E3B0E0E7E3F0E0808136
:1036E000482F8981282F30E081E090E002C0880FC8
:1036F000991F2A95E2F7842B8C93A8E3B0E0E8E3C6
:10370000F0E08081482F8981282F30E081E090E02F
:10371000022E02C0880F991F0A94E2F78095842335
:103720008C9349C18C81882331F5A4E3B0E0E4E3B4
:10373000F0E08081482F8981282F30E081E090E0FF
:1037400002C0880F991F2A95E2F7842B8C93A5E37A
:10375000B0E0E5E3F0E08081482F8981282F30E058
:1037600081E090E0022E02C0880F991F0A94E2F7D0
:10377000842B8C9320C18C81823041F5A4E3B0E08E
:10378000E4E3F0E08081482F8981282F30E081E058
:1037900090E002C0880F991F2A95E2F78095842354
:1037A0008C93A5E3B0E0E5E3F0E08081482F8981C8
:1037B000282F30E081E090E0022E02C0880F991F90
:1037C0000A94E2F7809584238C93F5C08C81833032
:1037D00039F5A4E3B0E0E4E3F0E08081482F89818B
:1037E000282F30E081E090E002C0880F991F2A95D1
:1037F000E2F7809584238C93A5E3B0E0E5E3F0E065
:103800008081482F8981282F30E081E090E0022ECE
:1038100002C0880F991F0A94E2F7842B8C93CBC0C7
:10382000A4E3B0E0E4E3F0E08081482F8981282F11
:1038300030E081E090E002C0880F991F2A95E2F7FE
:10384000842B8C93A5E3B0E0E5E3F0E08081482F82
:103850008981282F30E081E090E0022E02C0880F9D
:10386000991F0A94E2F7809584238C93A4C08C81DD
:10387000882331F5A1E3B0E0E1E3F0E08081482F57
:103880008981282F30E081E090E002C0880F991FE5
:103890002A95E2F7842B8C93A2E3B0E0E2E3F0E018
:1038A0008081482F8981282F30E081E090E0022E2E
:1038B00002C0880F991F0A94E2F7842B8C937BC077
:1038C0008C81823041F5A1E3B0E0E1E3F0E080815A
:1038D000482F8981282F30E081E090E002C0880FD6
:1038E000991F2A95E2F7809584238C93A2E3B0E098
:1038F000E2E3F0E08081482F8981282F30E081E0E9
:1039000090E0022E02C0880F991F0A94E2F780957A
:1039100084238C9350C08C81833039F5A1E3B0E0CF
:10392000E1E3F0E08081482F8981282F30E081E0B9
:1039300090E002C0880F991F2A95E2F780958423B2
:103940008C93A2E3B0E0E2E3F0E08081482F89812C
:10395000282F30E081E090E0022E02C0880F991FEE
:103960000A94E2F7842B8C9326C0A1E3B0E0E1E354
:10397000F0E08081482F8981282F30E081E090E0BD
:1039800002C0880F991F2A95E2F7842B8C93A2E33B
:10399000B0E0E2E3F0E08081482F8981282F30E019
:1039A00081E090E0022E02C0880F991F0A94E2F78E
:1039B000809584238C9326960FB6F894DEBF0FBEB5
:1039C000CDBFCF91DF910895DF93CF93CDB7DEB711
:1039D00061970FB6F894DEBF0FBECDBF6E877F87AD
:1039E000888B998B8AE090E0A0E0B0E08A879B8783
:1039F000AC87BD871E821F82188619868E859F859B
:103A0000A889B9898A839B83AC83BD83198234C01A
:103A10008E859F85A889B9892A853B854C855D85DA
:103A2000BC01CD010E94B030DC01CB018E839F83AD
:103A3000A887B9878E859F85A889B9892A853B85FE
:103A40004C855D85BC01CD010E94B030DA01C90111
:103A50008E879F87A88BB98BE0918A01F0918B01AB
:103A60008E81805D808380918A0190918B01019687
:103A700090938B0180938A018E859F85A889B9894F
:103A80000097A105B10521F6E0918A01F0918B0123
:103A9000108218C080918A0190918B0101979093B8
:103AA0008B0180938A018981882F90E0E0918A01BF
:103AB000F0918B012081FC01E457FE4F2083898126
:103AC0008F5F898320918A0130918B0180918801D9
:103AD0009091890128173907E9F68981882F90E0AC
:103AE000FC01E457FE4F10828CE891E061960FB61E
:103AF000F894DEBF0FBECDBFCF91DF910895AF9296
:103B0000BF92CF92DF92EF92FF920F931F93DF93BA
:103B1000CF93CDB7DEB7CF52D1400FB6F894DEBF0A
:103B20000FBECDBF1DA61CA61CA21DA21EA21FA2B9
:103B300018A619A61AA61BA61C8E1D8E1E8E1F8ED9
:103B400018A219A21AA21BA21B8E1A8E198E198AEC
:103B50001A8A1B8A1C8A1D8A1E8A1F8A188E0E9436
:103B600006190E940C1181E061E00E94D3138B8D35
:103B7000882309F09CC40E9436108DA78DA5803340
:103B800010F40C94F2288DA58A3310F00C94F228CE
:103B90008DA562E00E94D3132CA13DA14EA15FA18F
:103BA00068A579A58AA59BA5A22EB32EC42ED52ED5
:103BB000E62EF72E082F192F2A2D3B2D4C2D5D2D8B
:103BC0006E2D7F2D802F912F01E00E9444012EAF9A
:103BD0003FAF21964FAF219722965FAF2297239652
:103BE0006FAF239724967FAF249725968FAF2597A5
:103BF00026969FAF26972EAD3FAD21964FAD2197CC
:103C000022965FAD229723966FAD239724967FADC2
:103C1000249725968FAD259726969FAD269702E08F
:103C20000E94440127962FAF279728963FAF2897E9
:103C300029964FAF29972A965FAF2A972B966FAF99
:103C40002B972C967FAF2C972D968FAF2D972E9676
:103C50009FAF2E970EAD27961FAD2797010F2F967A
:103C60000FAF2F9721E067962FAF67972F963FAD45
:103C70002F974EAD341718F067961FAE67975FAD5C
:103C800028966FAD2897560F60965FAF609771E0EA
:103C900068967FAF689760968FAD60979FAD8917E4
:103CA00018F068961FAE689767960FAD6797609695
:103CB0001FAD6097010F69960FAF699721E06A9673
:103CC0002FAF6A9769963FAD699760964FAD609741
:103CD000341718F06A961FAE6A9768965FAD6897BA
:103CE0006A966FAD6A97562B68965FAF689769962C
:103CF0007FAD699760967FAF609721968FAD2197D2
:103D000029969FAD2997890F61968FAF619701E042
:103D10006B960FAF6B9761961FAD619721962FAD94
:103D20002197121718F06B961FAE6B9768963FADF0
:103D3000689761964FAD6197340F6C963FAF6C9763
:103D400051E06D965FAF6D976C966FAD6C97619615
:103D50007FAD6197671718F06D961FAE6D976B96E4
:103D60008FAD6B976D969FAD6D97892B6B968FAFCF
:103D70006B976C960FAD6C9761960FAF619722961B
:103D80001FAD22972A962FAD2A97120F62961FAF6A
:103D9000629731E06E963FAF6E9762964FAD629735
:103DA00022965FAD2297451718F06E961FAE6E975C
:103DB0006B966FAD6B9762967FAD6297670F6F964C
:103DC0006FAF6F9781E0A0968FAFA0976F969FAD72
:103DD0006F9762960FAD6297901718F0A0961FAE7E
:103DE000A0976E961FAD6E97A0962FADA097122B41
:103DF0006E961FAF6E976F963FAD6F9762963FAF0F
:103E0000629723964FAD23972B965FAD2B97450F67
:103E100063964FAF639761E0A1966FAFA1976396EA
:103E20007FAD639723968FAD2397781718F0A196EF
:103E30001FAEA1976E969FAD6E9763960FAD639779
:103E4000900FA2969FAFA29711E0A3961FAFA397E2
:103E5000A2962FADA29763963FAD6397231718F0F4
:103E6000A3961FAEA397A1964FADA197A3965FAD62
:103E7000A397452BA1964FAFA197A2966FADA2979E
:103E800063966FAF639724967FAD24972C968FAD82
:103E90002C97780F64967FAF649791E0A4969FAFBC
:103EA000A49764960FAD649724961FAD24970117CD
:103EB00018F0A4961FAEA497A1962FADA197649673
:103EC0003FAD6497230FA5962FAFA59741E0A69627
:103ED0004FAFA697A5965FADA59764966FAD649713
:103EE000561718F0A6961FAEA697A4967FADA49776
:103EF000A6968FADA697782BA4967FAFA497A5968C
:103F00009FADA59764969FAF649725960FAD2597B3
:103F10002D961FAD2D97010F65960FAF659721E088
:103F2000A7962FAFA79765963FAD659725964FAD9E
:103F30002597341718F0A7961FAEA797A4965FADE4
:103F4000A49765966FAD6597560FA8965FAFA89733
:103F500071E0A9967FAFA997A8968FADA8976596AF
:103F60009FAD6597891718F0A9961FAEA997A796D8
:103F70000FADA797A9961FADA997012BA7960FAFD5
:103F8000A797A8962FADA89765962FAF6597269609
:103F90003FAD26972E964FAD2E97340F66963FAFC6
:103FA0006697A7968FADA79766965FAD6697850FC4
:103FB00066968FAF66972F966FAD2F976CA360961E
:103FC0007FAD60977DA361968FAD61978EA362965A
:103FD0009FAD62979FA363960FAD639708A7649602
:103FE0001FAD649719A765962FAD65972AA76696AA
:103FF0003FAD66973BA78DA580538DA78DA5082F54
:1040000010E020E030E040E050E060E070E00EAB17
:104010001FAB28AF39AF4AAF5BAF6CAF7DAF1CA110
:10402000AA961FAFAA972DA1AB962FAFAB973EA133
:10403000AC963FAFAC974FA1AD964FAFAD9758A59B
:10404000AE965FAFAE9769A5AF966FAFAF977AA503
:10405000E0967FAFE0978BA5E1968FAFE197AA96A8
:104060009FADAA970EA9900FE2969FAFE29711E03D
:10407000EA961FAFEA97E2962FADE297AA963FAD78
:10408000AA97231718F0EA961FAEEA97AB964FADA2
:10409000AB975FA9450FE3964FAFE39761E0EB96CF
:1040A0006FAFEB97E3967FADE397AB968FADAB9792
:1040B000781718F0EB961FAEEB97EA969FADEA974C
:1040C000E3960FADE397900FEC969FAFEC9711E05E
:1040D000ED961FAFED97EC962FADEC97E3963FADC5
:1040E000E397231718F0ED961FAEED97EB964FADC3
:1040F000EB97ED965FADED97452BEB964FAFEB97BA
:10410000EC966FADEC97E3966FAFE397AC967FAD0F
:10411000AC9788AD780FE4967FAFE49791E0EE9688
:104120009FAFEE97E4960FADE497AC961FADAC97BA
:10413000011718F0EE961FAEEE97EB962FADEB97AA
:10414000E4963FADE497230FEF962FAFEF9741E052
:10415000C158DF4F4883CF57D040EF965FADEF9700
:10416000E4966FADE497561728F0C158DF4F1882D8
:10417000CF57D040EE967FADEE97C158DF4F888184
:10418000CF57D040782BEE967FAFEE97EF969FAD4E
:10419000EF97E4969FAFE497AD960FADAD9719AD4D
:1041A000010FE5960FAFE59721E0C058DF4F288358
:1041B000C058D040E5963FADE597AD964FADAD9771
:1041C000341728F0C058DF4F1882C058D040EE9600
:1041D0005FADEE97E5966FADE597560FCF57DF4F82
:1041E0005883C158D04071E0CE57DF4F7883C25812
:1041F000D040CF57DF4F8881C158D040E5969FAD62
:10420000E597891728F0CE57DF4F1882C258D04063
:10421000C058DF4F0881C058D040CE57DF4F1881BB
:10422000C258D040012BC058DF4F0883C058D0403F
:10423000CF57DF4F2881C158D040E5962FAFE59783
:10424000AE963FADAE974AAD340FE6963FAFE697D8
:1042500051E0CD57DF4F5883C358D040E6966FAD3D
:10426000E697AE967FADAE97671728F0CD57DF4F34
:104270001882C358D040C058DF4F8881C058D04002
:10428000E6969FADE697890FCC57DF4F8883C458D9
:10429000D04001E0CB57DF4F0883C558D040CC5702
:1042A000DF4F1881C458D040E6962FADE69712171D
:1042B00028F0CB57DF4F1882C558D040CD57DF4F7D
:1042C0003881C358D040CB57DF4F4881C558D040C4
:1042D000342BCD57DF4F3883C358D040CC57DF4FF6
:1042E0005881C458D040E6965FAFE697AF966FAD61
:1042F000AF977BAD670FE7966FAFE79781E0CA573F
:10430000DF4F8883C658D040E7969FADE797AF96BA
:104310000FADAF97901728F0CA57DF4F1882C658D5
:10432000D040CD57DF4F1881C358D040E7962FAD0E
:10433000E797120FC957DF4F1883C758D04031E0B5
:10434000C857DF4F3883C858D040C957DF4F48811E
:10435000C758D040E7965FADE797451728F0C85794
:10436000DF4F1882C858D040CA57DF4F6881C658FF
:10437000D040C857DF4F7881C858D040672BCA5704
:10438000DF4F6883C658D040C957DF4F8881C75870
:10439000D040E7968FAFE797E0969FADE0970CADE2
:1043A000900FE8969FAFE89711E0C757DF4F18834B
:1043B000C958D040E8962FADE897E0963FADE0971A
:1043C000231728F0C757DF4F1882C958D040CA5763
:1043D000DF4F4881C658D040E8965FADE897450F5B
:1043E000C657DF4F4883CA58D04061E0C557DF4FFA
:1043F0006883CB58D040C657DF4F7881CA58D04029
:10440000E8968FADE897781728F0C557DF4F1882E8
:10441000CB58D040C757DF4F9881C958D040C557B7
:10442000DF4F0881CB58D040902BC757DF4F988380
:10443000C958D040C657DF4F1881CA58D040E896B7
:104440001FAFE897E1962FADE1973DAD230FE996B9
:104450002FAFE997C757DF4F8881C958D040E996F9
:104460004FADE997840FE9968FAFE997E2965FAD7C
:10447000E2975CA3E3966FADE3976DA3E4967FADFF
:10448000E4977EA3E5968FADE5978FA3E6969FAD63
:10449000E69798A7E7960FADE79709A7E8961FADAF
:1044A000E8971AA7E9962FADE9972BA79BC68B8DA6
:1044B000882309F497C60E9436108CA78CA58033F8
:1044C00008F490C68CA58A3308F08CC68CA562E0EF
:1044D0000E94D3132C8D3D8D4E8D5F8D68A179A1E7
:1044E0008AA19BA1A22EB32EC42ED52EE62EF72E86
:1044F000082F192F2A2D3B2D4C2D5D2D6E2D7F2D34
:10450000802F912F01E00E944401C457DF4F288380
:10451000CC58D040C357DF4F3883CD58D040C25716
:10452000DF4F4883CE58D040C157DF4F5883CF5814
:10453000D040C057DF4F6883C059D040CF56DF4FBF
:104540007883C159D040CE56DF4F8883C259D040BE
:10455000CD56DF4F9883C359D040C457DF4F2881D1
:10456000CC58D040C357DF4F3881CD58D040C257C8
:10457000DF4F4881CE58D040C157DF4F5881CF58C8
:10458000D040C057DF4F6881C059D040CF56DF4F71
:104590007881C159D040CE56DF4F8881C259D04072
:1045A000CD56DF4F9881C359D04002E00E944401AC
:1045B000CC56DF4F2883C459D040CB56DF4F3883C9
:1045C000C559D040CA56DF4F4883C659D040C95656
:1045D000DF4F5883C759D040C856DF4F6883C8594A
:1045E000D040C756DF4F7883C959D040C656DF4FF9
:1045F0008883CA59D040C556DF4F9883CB59D040E5
:10460000C457DF4F3881CC58D040CC56DF4F48815B
:10461000C459D040340FC456DF4F3883CC59D040F2
:1046200051E0CC55DF4F5883C45AD040C456DF4FB9
:104630006881CC59D040C457DF4F7881CC58D040E6
:10464000671728F0CC55DF4F1882C45AD040C357A3
:10465000DF4F8881CD58D040CB56DF4F9881C55968
:10466000D040890FC356DF4F8883CD59D04001E039
:10467000CB55DF4F0883C55AD040C356DF4F188152
:10468000CD59D040C357DF4F2881CD58D0401217A5
:1046900028F0CB55DF4F1882C55AD040CC55DF4F9C
:1046A0003881C45AD040C356DF4F4881CD59D040DD
:1046B000340FCA55DF4F3883C65AD04051E0C95530
:1046C000DF4F5883C75AD040CA55DF4F6881C65A5A
:1046D000D040C356DF4F7881CD59D040671728F0BE
:1046E000C955DF4F1882C75AD040CB55DF4F88815C
:1046F000C55AD040C955DF4F9881C75AD040892B41
:10470000CB55DF4F8883C55AD040CA55DF4F08814B
:10471000C65AD040C356DF4F0883CD59D040C25748
:10472000DF4F1881CE58D040CA56DF4F2881C65976
:10473000D040120FC256DF4F1883CE59D04031E01F
:10474000C855DF4F3883C85AD040C256DF4F488122
:10475000CE59D040C257DF4F5881CE58D040451770
:1047600028F0C855DF4F1882C85AD040CB55DF4FCC
:104770006881C55AD040C256DF4F7881CE59D040AB
:10478000670FC755DF4F6883C95AD04081E0C655CF
:10479000DF4F8883CA5AD040C755DF4F9881C95A26
:1047A000D040C256DF4F0881CE59D040901728F034
:1047B000C655DF4F1882CA5AD040C855DF4F1881FE
:1047C000C85AD040C655DF4F2881CA5AD040122B54
:1047D000C855DF4F1883C85AD040C755DF4F3881BE
:1047E000C95AD040C256DF4F3883CE59D040C15746
:1047F000DF4F4881CF58D040C956DF4F5881C75945
:10480000D040450FC156DF4F4883CF59D04061E0BB
:10481000C555DF4F6883CB5AD040C156DF4F7881F2
:10482000CF59D040C157DF4F8881CF58D04078173B
:1048300028F0C555DF4F1882CB5AD040C855DF4FFE
:104840009881C85AD040C156DF4F0881CF59D04017
:10485000900FC455DF4F9883CC5AD04011E0C35518
:10486000DF4F1883CD5AD040C455DF4F2881CC5A32
:10487000D040C156DF4F3881CF59D040231728F0A0
:10488000C355DF4F1882CD5AD040C555DF4F488100
:10489000CB5AD040C355DF4F5881CD5AD040452B1D
:1048A000C555DF4F4883CB5AD040C455DF4F688190
:1048B000CC5AD040C156DF4F6883CF59D040C05743
:1048C000DF4F7881C059D040C856DF4F8881C85922
:1048D000D040780FC056DF4F7883C05AD04091E067
:1048E000C255DF4F9883CE5AD040C056DF4F088163
:1048F000C05AD040C057DF4F1881C059D04001176F
:1049000028F0C255DF4F1882CE5AD040C555DF4F30
:104910002881CB5AD040C056DF4F3881C05AD04092
:10492000230FC155DF4F2883CF5AD04041E0C055F7
:10493000DF4F4883C05BD040C155DF4F5881CF5A0D
:10494000D040C056DF4F6881C05AD040561728F07B
:10495000C055DF4F1882C05BD040C255DF4F788111
:10496000CE5AD040C055DF4F8881C05BD040782BF5
:10497000C255DF4F7883CE5AD040C155DF4F988162
:10498000CF5AD040C056DF4F9883C05AD040CF5640
:10499000DF4F0881C159D040C756DF4F1881C95930
:1049A000D040010FCF55DF4F0883C15AD04021E0DE
:1049B000CF54DF4F2883C15BD040CF55DF4F3881C4
:1049C000C15AD040CF56DF4F4881C159D04034172B
:1049D00028F0CF54DF4F1882C15BD040C255DF4F63
:1049E0005881CE5AD040CF55DF4F6881C15AD04050
:1049F000560FCE54DF4F5883C25BD04071E0CD5488
:104A0000DF4F7883C35BD040CE54DF4F8881C25BD9
:104A1000D040CF55DF4F9881C15AD040891728F038
:104A2000CD54DF4F1882C35BD040CF54DF4F088195
:104A3000C15BD040CD54DF4F1881C35BD040012B08
:104A4000CF54DF4F0883C15BD040CE54DF4F288165
:104A5000C25BD040CF55DF4F2883C15AD040CE56DD
:104A6000DF4F3881C259D040C656DF4F4881CA59FE
:104A7000D040340FCE55DF4F3883C25AD04051E07A
:104A8000CC54DF4F5883C45BD040CE55DF4F688194
:104A9000C25AD040CE56DF4F7881C259D0406717F6
:104AA00028F0CC54DF4F1882C45BD040CF54DF4F86
:104AB0008881C15BD040CE55DF4F9881C25AD0402B
:104AC000890FCB54DF4F8883C55BD04001E0CA54C7
:104AD000DF4F0883C65BD040CB54DF4F1881C55BE6
:104AE000D040CE55DF4F2881C25AD040121728F04F
:104AF000CA54DF4F1882C65BD040CC54DF4F388198
:104B0000C45BD040CA54DF4F4881C65BD040342BD1
:104B1000CC54DF4F3883C45BD040CB54DF4F588137
:104B2000C55BD040CE55DF4F5883C25AD040CD56DA
:104B3000DF4F6881C359D040C556DF4F7881CB59CC
:104B4000D040670FCD55DF4F6883C35AD040CC5457
:104B5000DF4F8881C45BD040CD55DF4F9881C35A69
:104B6000D040890FCD55DF4F8883C35AD040C456FB
:104B7000DF4F0881CC59D0400C8FC356DF4F1881CE
:104B8000CD59D0401D8FC256DF4F2881CE59D0401D
:104B90002E8FC156DF4F3881CF59D0403F8FC0563E
:104BA000DF4F4881C05AD04048A3CF55DF4F5881CE
:104BB000C15AD04059A3CE55DF4F6881C25AD04068
:104BC0006AA3CD55DF4F7881C35AD0407BA38CA513
:104BD00080538CA78CA5082F10E020E030E040E047
:104BE00050E060E070E00EA71FA728AB39AB4AABDE
:104BF0005BAB6CAB7DAB1C8DC954DF4F1883C75BBF
:104C0000D0402D8DC854DF4F2883C85BD0403E8DE7
:104C1000C754DF4F3883C95BD0404F8DC654DF4F38
:104C20004883CA5BD04058A1C554DF4F5883CB5B43
:104C3000D04069A1C454DF4F6883CC5BD0407AA1D7
:104C4000C354DF4F7883CD5BD0408BA1C254DF4F7C
:104C50008883CE5BD040C954DF4F9881C75BD0407A
:104C60000EA5900FC154DF4F9883CF5BD04011E069
:104C7000C953DF4F1883C75CD040C154DF4F288130
:104C8000CF5BD040C954DF4F3881C75BD04023177A
:104C900028F0C953DF4F1882C75CD040C854DF4F9B
:104CA0004881C85BD0405FA5450FC054DF4F4883A3
:104CB000C05CD04061E0C853DF4F6883C85CD0401F
:104CC000C054DF4F7881C05CD040C854DF4F88812A
:104CD000C85BD040781728F0C853DF4F1882C85CF3
:104CE000D040C953DF4F9881C75CD040C054DF4FDC
:104CF0000881C05CD040900FC753DF4F9883C95CD8
:104D0000D04011E0C653DF4F1883CA5CD040C75370
:104D1000DF4F2881C95CD040C054DF4F3881C05C70
:104D2000D040231728F0C653DF4F1882CA5CD0400A
:104D3000C853DF4F4881C85CD040C653DF4F58810D
:104D4000CA5CD040452BC853DF4F4883C85CD04075
:104D5000C753DF4F6881C95CD040C054DF4F6883C0
:104D6000C05CD040C754DF4F7881C95BD04088A970
:104D7000780FCF53DF4F7883C15CD04091E0C553AB
:104D8000DF4F9883CB5CD040CF53DF4F0881C15CAD
:104D9000D040C754DF4F1881C95BD040011728F0BD
:104DA000C553DF4F1882CB5CD040C853DF4F2881FA
:104DB000C85CD040CF53DF4F3881C15CD040230F57
:104DC000C453DF4F2883CC5CD04041E0C353DF4F56
:104DD0004883CD5CD040C453DF4F5881CC5CD04079
:104DE000CF53DF4F6881C15CD040561728F0C353C2
:104DF000DF4F1882CD5CD040C553DF4F7881CB5C4C
:104E0000D040C353DF4F8881CD5CD040782BC55351
:104E1000DF4F7883CB5CD040C453DF4F9881CC5CAC
:104E2000D040CF53DF4F9883C15CD040C654DF4F92
:104E30000881CA5BD04019A9010FCE53DF4F088308
:104E4000C25CD04021E0C253DF4F2883CE5CD0400B
:104E5000CE53DF4F3881C25CD040C654DF4F48810B
:104E6000CA5BD040341728F0C253DF4F1882CE5CA3
:104E7000D040C553DF4F5881CB5CD040CE53DF4F7D
:104E80006881C25CD040560FC153DF4F5883CF5C5E
:104E9000D04071E0C053DF4F7883C05DD040C15334
:104EA000DF4F8881CF5CD040CE53DF4F9881C25C0A
:104EB000D040891728F0C053DF4F1882C05DD04022
:104EC000C253DF4F0881CE5CD040C053DF4F188102
:104ED000C05DD040012BC253DF4F0883CE5CD04071
:104EE000C153DF4F2881CF5CD040CE53DF4F2883A2
:104EF000C25CD040C554DF4F3881CB5BD0404AA95B
:104F0000340FCD53DF4F3883C35CD04051E0CF52D4
:104F1000DF4F5883C15DD040CD53DF4F6881C35C04
:104F2000D040C554DF4F7881CB5BD040671728F065
:104F3000CF52DF4F1882C15DD040C253DF4F88810E
:104F4000CE5CD040CD53DF4F9881C35CD040890FF9
:104F5000CE52DF4F8883C25DD04001E0CD52DF4F9B
:104F60000883C35DD040CE52DF4F1881C25DD04070
:104F7000CD53DF4F2881C35CD040121728F0CD52AB
:104F8000DF4F1882C35DD040CF52DF4F3881C15D03
:104F9000D040CD52DF4F4881C35DD040342BCF523B
:104FA000DF4F3883C15DD040CE52DF4F5881C25DA4
:104FB000D040CD53DF4F5883C35CD040C454DF4F43
:104FC0006881CC5BD0407BA9670FCC53DF4F6883EF
:104FD000C45CD04081E0CC52DF4F8883C45DD040B8
:104FE000CC53DF4F9881C45CD040C454DF4F08815C
:104FF000CC5BD040901728F0CC52DF4F1882C45DB4
:10500000D040CF52DF4F1881C15DD040CC53DF4F2D
:105010002881C45CD040120FCB52DF4F1883C55D8E
:10502000D04031E0CA52DF4F3883C65DD040CB520A
:10503000DF4F4881C55DD040CC53DF4F5881C45C01
:10504000D040451728F0CA52DF4F1882C65DD040C5
:10505000CC52DF4F6881C45DD040CA52DF4F7881A7
:10506000C65DD040672BCC52DF4F6883C45DD04013
:10507000CB52DF4F8881C55DD040CC53DF4F888352
:10508000C45CD040C354DF4F9881CD5BD0400CA9A5
:10509000900FCB53DF4F9883C55CD04011E0C952CD
:1050A000DF4F1883C75DD040CB53DF4F2881C55CED
:1050B000D040C354DF4F3881CD5BD040231728F058
:1050C000C952DF4F1882C75DD040CC52DF4F4881B4
:1050D000C45DD040CB53DF4F5881C55CD040450FF5
:1050E000C852DF4F4883C85DD04061E0C752DF4FF0
:1050F0006883C95DD040C852DF4F7881C85DD04019
:10510000CB53DF4F8881C55CD040781728F0C75259
:10511000DF4F1882C95DD040C952DF4F9881C75D0B
:10512000D040C752DF4F0881C95DD040902BC95293
:10513000DF4F9883C75DD040C852DF4F1881C85DEC
:10514000D040CB53DF4F1883C55CD040C254DF4FF3
:105150002881CE5BD0403DA9230FCA53DF4F28835F
:10516000C65CD040C952DF4F8881C75DD040CA536A
:10517000DF4F4881C65CD040840FCA53DF4F88831D
:10518000C65CD040C154DF4F5881CF5BD0405C8FAC
:10519000C054DF4F6881C05CD0406D8FCF53DF4F6C
:1051A0007881C15CD0407E8FCE53DF4F8881C25C56
:1051B000D0408F8FCD53DF4F9881C35CD04098A3F0
:1051C000CC53DF4F0881C45CD04009A3CB53DF4FE1
:1051D0001881C55CD0401AA3CA53DF4F2881C65C32
:1051E000D0402BA30E943610898F898D8B3249F0D5
:1051F000898D8D3231F0898D8A3219F0898D8F3207
:1052000049F4898D62E00E94D313898D8B8F898D3B
:105210008A8F31C7898D8D3309F00DC7898D62E082
:105220000E94D3138A8D8B3209F048C33CA1C65229
:10523000DF4F3883CA5DD0404DA1C552DF4F488350
:10524000CB5DD0405EA1C452DF4F5883CC5DD040CF
:105250006FA1C352DF4F6883CD5DD04078A5C252A5
:10526000DF4F7883CE5DD04089A5C152DF4F888360
:10527000CF5DD0409AA5C052DF4F9883C05ED0402A
:105280000BA5CF51DF4F0883C15ED0401C8DCE519E
:10529000DF4F1883C25ED0402D8DCD51DF4F288364
:1052A000C35ED0403E8DCC51DF4F3883C45ED040CA
:1052B0004F8DCB51DF4F4883C55ED04058A1CA51B6
:1052C000DF4F5883C65ED04069A1C951DF4F688364
:1052D000C75ED0407AA1C851DF4F7883C85ED04006
:1052E0008BA1C751DF4F8883C95ED040C652DF4FC4
:1052F0009881CA5DD040CE51DF4F0881C25ED04058
:10530000900FC651DF4F9883CA5ED04011E0CE5057
:10531000DF4F1883C25FD040C651DF4F2881CA5E7D
:10532000D040C652DF4F3881CA5DD040231728F0E5
:10533000CE50DF4F1882C25FD040C552DF4F488148
:10534000CB5DD040CD51DF4F5881C35ED040450F7B
:10535000C551DF4F4883CB5ED04061E0CD50DF4F79
:105360006883C35FD040C551DF4F7881CB5ED040AA
:10537000C552DF4F8881CB5DD040781728F0CD50E3
:10538000DF4F1882C35FD040CE50DF4F9881C25F9D
:10539000D040C551DF4F0881CB5ED040900FCC503C
:1053A000DF4F9883C45FD04011E0CB50DF4F1883AC
:1053B000C55FD040CC50DF4F2881C45FD040C5517D
:1053C000DF4F3881CB5ED040231728F0CB50DF4F22
:1053D0001882C55FD040CD50DF4F4881C35FD040B9
:1053E000CB50DF4F5881C55FD040452BCD50DF4FAC
:1053F0004883C35FD040CC50DF4F6881C45FD0404A
:10540000C551DF4F6883CB5ED040C452DF4F7881F7
:10541000CC5DD040CC51DF4F8881C45ED040780F46
:10542000C451DF4F7883CC5ED04091E0CA50DF4F4B
:105430009883C65FD040C451DF4F0881CC5ED04016
:10544000C452DF4F1881CC5DD040011728F0CA50FC
:10545000DF4F1882C65FD040CD50DF4F2881C35F39
:10546000D040C451DF4F3881CC5ED040230FC950AB
:10547000DF4F2883C75FD04041E0C850DF4F4883EB
:10548000C85FD040C950DF4F5881C75FD040C4517A
:10549000DF4F6881CC5ED040561728F0C850DF4FF0
:1054A0001882C85FD040CA50DF4F7881C65FD040B5
:1054B000C850DF4F8881C85FD040782BCA50DF4F7B
:1054C0007883C65FD040C950DF4F9881C75FD04016
:1054D000C451DF4F9883CC5ED040C352DF4F088168
:1054E000CD5DD040CB51DF4F1881C55ED040010F5C
:1054F000C351DF4F0883CD5ED04021E0C750DF4F5E
:105500002883C95FD040C351DF4F3881CD5ED04082
:10551000C352DF4F4881CD5DD040341728F0C750CB
:10552000DF4F1882C95FD040CA50DF4F5881C65F35
:10553000D040C351DF4F6881CD5ED040560FC6507A
:10554000DF4F5883CA5FD04071E0C550DF4F78838A
:10555000CB5FD040C650DF4F8881CA5FD040C35177
:10556000DF4F9881CD5ED040891728F0C550DF4FBE
:105570001882CB5FD040C750DF4F0881C95FD04051
:10558000C550DF4F1881CB5FD040012BC750DF4F94
:105590000883C95FD040C650DF4F2881CA5FD04022
:1055A000C351DF4F2883CD5ED040C252DF4F3881D8
:1055B000CE5DD040CA51DF4F4881C65ED040340F27
:1055C000C251DF4F3883CE5ED04051E0C450DF4F30
:1055D0005883CC5FD040C251DF4F6881CE5ED0404F
:1055E000C252DF4F7881CE5DD040671728F0C4509B
:1055F000DF4F1882CC5FD040C750DF4F8881C95F32
:10560000D040C251DF4F9881CE5ED040890FC35049
:10561000DF4F8883CD5FD04001E0C250DF4F088369
:10562000CE5FD040C350DF4F1881CD5FD040C25114
:10563000DF4F2881CE5ED040121728F0C250DF4FD6
:105640001882CE5FD040C450DF4F3881CC5FD0404D
:10565000C250DF4F4881CE5FD040342BC450DF4F63
:105660003883CC5FD040C350DF4F5881CD5FD040EE
:10567000C251DF4F5883CE5ED040C152DF4F6881A8
:10568000CF5DD040C951DF4F7881C75ED040670FF2
:10569000C151DF4F6883CF5ED04081E0C150DF4F02
:1056A0008883CF5FD040C151DF4F9881CF5ED0401B
:1056B000C152DF4F0881CF5DD040901728F0C15014
:1056C000DF4F1882CF5FD040C450DF4F1881CC5FCE
:1056D000D040C151DF4F2881CF5ED040120FC05063
:1056E000DF4F1883C050D14031E0CF5FDE4F3883A9
:1056F000C150D140C050DF4F4881C050D140C1514E
:10570000DF4F5881CF5ED040451728F0CF5FDE4F86
:105710001882C150D140C150DF4F6881CF5FD04067
:10572000CF5FDE4F7881C150D140672BC150DF4F32
:105730006883CF5FD040C050DF4F8881C050D140D8
:10574000C151DF4F8883CF5ED040C052DF4F988178
:10575000C05ED040C851DF4F0881C85ED040900F76
:10576000C051DF4F9883C05FD04011E0CE5FDE4F65
:105770001883C250D140C051DF4F2881C05FD04054
:10578000C052DF4F3881C05ED040231728F0CE5F73
:10579000DE4F1882C250D140C150DF4F4881CF5FE9
:1057A000D040C051DF4F5881C05FD040450FCD5F22
:1057B000DE4F4883C350D14061E0CC5FDE4F688349
:1057C000C450D140CD5FDE4F7881C350D140C0512D
:1057D000DF4F8881C05FD040781728F0CC5FDE4F64
:1057E0001882C450D140CE5FDE4F9881C250D14064
:1057F000CC5FDE4F0881C450D140902BCE5FDE4F8E
:105800009883C250D140CD5FDE4F1881C350D14044
:10581000C051DF4F1883C05FD040CF51DF4F288188
:10582000C15ED040C751DF4F3881C95ED040230FE1
:10583000CF50DF4F2883C15FD040CE5FDE4F8881DD
:10584000C250D140CF50DF4F4881C15FD040840F5C
:10585000CF50DF4F8883C15FD040C651DF4F5881A2
:10586000CA5ED040598BC551DF4F6881CB5ED040B6
:105870006A8BC451DF4F7881CC5ED0407B8BC351A3
:10588000DF4F8881CD5ED0408C8BC251DF4F988135
:10589000CE5ED0409D8BC151DF4F0881CF5ED0409E
:1058A0000E8BC051DF4F1881C05FD0401F8BCF508F
:1058B000DF4F2881C15FD040288FA0C38A8D8D32F1
:1058C00009F048C33CA1CB5FDE4F3883C550D140BF
:1058D0004DA1CA5FDE4F4883C650D1405EA1C95F6B
:1058E000DE4F5883C750D1406FA1C85FDE4F688339
:1058F000C850D14078A5C75FDE4F7883C950D140EA
:1059000089A5C65FDE4F8883CA50D1409AA5C55F7E
:10591000DE4F9883CB50D1400BA5C45FDE4F088388
:10592000CC50D1401C8DC35FDE4F1883CD50D14089
:105930002D8DC25FDE4F2883CE50D1403E8DC15F9A
:10594000DE4F3883CF50D1404F8DC05FDE4F48834C
:10595000C051D14058A1CF5EDE4F5883C151D140D4
:1059600069A1CE5EDE4F6883C251D1407AA1CD5E7F
:10597000DE4F7883C351D1408BA1CC5EDE4F88834C
:10598000C451D140CB5FDE4F9881C550D140C35F39
:10599000DE4F0881CD50D140901BCB5EDE4F988307
:1059A000C551D14011E0C35EDE4F1883CD51D140C7
:1059B000CB5EDE4F2881C551D140CB5FDE4F3881B1
:1059C000C550D140321728F0C35EDE4F1882CD514A
:1059D000D140CA5FDE4F4881C650D140C25FDE4F22
:1059E0005881CE50D140451BCA5EDE4F4883C65118
:1059F000D14061E0C25EDE4F6883CE51D140CA5EC5
:105A0000DE4F7881C651D140CA5FDE4F8881C650D3
:105A1000D140871728F0C25EDE4F1882CE51D140A8
:105A2000CA5EDE4F9881C651D140C35EDE4F088109
:105A3000CD51D140901BC15EDE4F9883CF51D140F4
:105A400011E0C05EDE4F1883C052D140C15EDE4F10
:105A50002881CF51D140CA5EDE4F3881C651D14036
:105A6000321728F0C05EDE4F1882C052D140C25EAD
:105A7000DE4F4881CE51D140C05EDE4F5881C052CA
:105A8000D140452BC25EDE4F4883CE51D140C15E2E
:105A9000DE4F6881CF51D140CA5EDE4F6883C65168
:105AA000D140C95FDE4F7881C750D140C15FDE4F22
:105AB0008881CF50D140781BC95EDE4F7883C751B3
:105AC000D14091E0CF5DDE4F9883C152D140C95E95
:105AD000DE4F0881C751D140C95FDE4F1881C750E2
